:020000040800F2
:1000000098490020E9020008771F0008691D0008D0
:10001000751F0008C1060008E52300080000000065
:10002000000000000000000000000000290200089D
:10003000650700080000000085020008811F000815
:100040000303000803030008030300080303000878
:100050000303000803030008030300080303000868
:10006000030300080303000803030008C506000893
:1000700003030008D106000803030008DD0600089A
:100080000303000803030008030300080303000838
:100090000303000803030008030300080303000828
:1000A0000303000803030008030300080303000818
:1000B0000303000803030008030300080303000808
:1000C00003030008030300080303000803030008F8
:1000D00003030008030300080303000803030008E8
:1000E00003030008030300080303000803030008D8
:1000F0000303000855200008030300080303000859
:1001000003030008030300080303000803030008B7
:100110002921000835210008030300080303000813
:100120000303000803030008030300080303000897
:1001300003030008000000000000000003030008A3
:100140000303000803030008030300080303000877
:100150000303000803030008030300080303000867
:100160000303000803030008030300080303000857
:100170000303000803030008000000000000000063
:10018000030300080303000800F002F800F03CF845
:100190000AA090E8000C82448344AAF10107DA45E2
:1001A00001D100F031F8AFF2090EBAE80F0013F0F8
:1001B000010F18BFFB1A43F0010318470431000078
:1001C00024310000103A24BF78C878C1FAD8520709
:1001D00024BF30C830C144BF04680C6070470000C1
:1001E0000023002400250026103A28BF78C1FBD840
:1001F000520728BF30C148BF0B6070471FB502F0DF
:100200008DFE1FBD10B510BD00F0A6F91146FFF719
:10021000F5FF02F00BF900F0C4F903B4FFF7F2FFA9
:1002200003BC00F0CBF900002C4B19680868B0E85B
:10023000F04F80F30988BFF36F8F4FF0000080F319
:10024000118870470000000008480068006880F3CB
:1002500008884FF0000080F3148862B661B6BFF3DF
:100260004F8FBFF36F8F00DF00BF00BF08ED00E0CE
:10027000DFF80C00016841F470010160704700BFB5
:1002800088ED00E0EFF30980BFF36F8F134B1A681E
:100290001EF0100F08BF20ED108A20E9F04F10600B
:1002A00009B44FF0500080F31188BFF34F8FBFF3B4
:1002B0006F8F02F065FC4FF0000080F3118809BCDD
:1002C00019680868B0E8F04F1EF0100F08BFB0ECD6
:1002D000108A80F30988BFF36F8F704720000020D9
:1002E000EFF3058070470000094880470948004740
:1002F000FEE7FEE7FEE7FEE7FEE7FEE7FEE7FEE7D6
:10030000FEE7FEE704480549054A064B7047000032
:1003100045200008890100089843002098490020E2
:10032000984500209845002053EA020C00F06980AF
:100330002DE9F04B4FF00006002B1FBFB3FA83F5F9
:1003400003FA05F424FA05F65E4012BF1643B2FA2A
:1003500082F502FA05F4C5F120051EBF22FA05FC5C
:1003600044EA0C04203556EA044C4FEA144418BF02
:10037000641C4FF000084FF00009904271EB030C31
:1003800039D3002919BFB1FA81F701FA07F6B0FA9B
:1003900080F700FA07F6C7F120071EBF20FA07FC16
:1003A00046EA0C062037B6FBF4FCA7EB0507103F26
:1003B00007F01F0BCBF120060CFA0BFB2CFA06F60C
:1003C00044BFB3460026202FA4BF5E464FF0000B6B
:1003D0005BEA060C08BF4FF0010B19EB0B09ABFBF6
:1003E000027C48EB0608C01B06FB02CC0BFB03CCCF
:1003F00071EB0C01C1E70B46024641464846BDE899
:10040000F08B13B54FF000004FF00001AFF3008008
:10041000BDE81C407047032A40F2308010F0030C06
:1004200000F0158011F8013BBCF1020F624498BF47
:1004300011F801CB00F8013B38BF11F8013BA2F1E4
:10044000040298BF00F801CB38BF00F8013B11F05F
:10045000030300F02580083AC0F0088051F8043BFF
:10046000083A51F804CBA0E80810F5E7121D5CBF6C
:1004700051F8043B40F8043BAFF30080D20724BF9F
:1004800011F8013B11F801CB48BF11F8012B24BF33
:1004900000F8013B00F801CB48BF00F8012B704782
:1004A00010B5203AC0F00B80B1E81850203AA0E80F
:1004B0001850B1E81850A0E81850BFF4F5AF5FEA43
:1004C000027C24BFB1E81850A0E8185044BF18C9F6
:1004D00018C0BDE810405FEA827C24BF51F8043B9D
:1004E00040F8043B08BF7047D20728BF31F8023BF1
:1004F00048BF11F8012B28BF20F8023B48BF00F885
:10050000012B70474FF0000200B513469446964603
:10051000203922BFA0E80C50A0E80C50B1F1200116
:10052000BFF4F7AF090728BFA0E80C5048BF0CC0C4
:100530005DF804EB890028BF40F8042B08BF704722
:1005400048BF20F8022B11F0804F18BF00F8012B94
:100550007047704770477047754600F02BF8AE46FD
:1005600005006946534620F00700854618B020B5BF
:10057000FFF7C8FEBDE820404FF000064FF000072F
:100580004FF000084FF0000B21F00701AC46ACE83B
:10059000C009ACE8C009ACE8C009ACE8C0098D46A8
:1005A000704710B50446AFF300802046BDE8104008
:1005B000FFF733BE0048704734430020014918203C
:1005C000ABBEFEE7260002007047000030B50C46C7
:1005D00005000CD0022C0AD90548A11E0288284625
:1005E00000F0C4F8291901F8020D000A487030BD66
:1005F0009E00002030B50C46050008D0022C06D91C
:10060000FF22611E00F0C8F8291901F8010C30BD65
:1006100008B502F0B5FB264DDFF89880DFF898A00A
:100620004FF00F0BA5F1200905F10C04CDF80000E7
:10063000A5F808B098ED000A642085ED000A98ED51
:10064000020A1E2685ED010A688199E80E00C9E9B3
:100650000812A520C9F828302070A4F801609AF883
:100660000000134FE070401C203F8AF80000052175
:1006700007F12C00FFF7BEFF40F20230A4F805009E
:1006800032463946E01DFFF7C6FE272107F12C0050
:10069000FFF79CFF3223272207F12C01074801F0C6
:1006A00009FB4FF4FA71684601F0E2FEC0E7000072
:1006B00000430020CC4200209C0000204403002086
:1006C000FEE70000014800F0CDB900008C040020D6
:1006D000014800F0C7B90000CC030020014800F039
:1006E000C1B900002C04002001681823CAB2103AD6
:1006F000B2FBF3F2054B6FF30901032A9B5CC36560
:1007000000D9091D81650846704700007C2F00084C
:1007100010B5014600208B698A6A4FF0C07453B14E
:10072000B3F5005F15D072B1012A0CD0022A0AD0AD
:10073000032A09D104E01AB1012A06D0022A03D102
:10074000C96AC90100D5012010BDC96AA142FAD009
:1007500010BD002AF7D0012AF2D0022AF3D0032AD2
:10076000F3D010BD704772B6FEE7000010B558B167
:10077000084C491E0BD310F8013B5340DBB234F850
:10078000133083EA1222F4E74FF6FF7010BD1046D3
:1007900010BD00009C30000810B5054C04E000BFFF
:1007A00010F8013B5340E25C491EF9D2104610BDDF
:1007B0009C2F000870B5040003D094F8200010B1FD
:1007C00004E0012070BD204600F082F82068016836
:1007D00041F00101016000F077FB0546052604E0C9
:1007E00000F072FB401B0A2811D820684068C0073F
:1007F000F6D02068016821F00201016000F064FB7E
:1008000005460BE000F060FB401B0A2806D9606A31
:1008100040F40030606284F82060D2E720684068CD
:100820008007EFD4207E0128206801683DD021F0A8
:1008300080010160607E01282068016838D021F0C5
:1008400040010160A07E01282068016833D021F0BA
:1008500020010160E07E0128206801682ED041F06F
:1008600010010160207F01282068016829D021F053
:1008700008010160607F01282068016824D021F010
:1008800004010160D4E902010843D4E904121143D0
:1008900008436168491E08432168C86100206062FE
:1008A000012084F82000002070BD41F08001C0E7E5
:1008B00041F04001C5E741F02001CAE721F01001F5
:1008C000CFE741F00801D4E741F00401D9E7000087
:1008D000F0B587B0044614216846FFF713FE2E4B8F
:1008E0002E48DFF8B0E01968D4F800C02B4A022582
:1008F0000326092710300024491CF44519D119603A
:10090000012907D1016841F000710160006800F021
:1009100000700590106840F0010010601068694692
:1009200000F0010005904FF4C050CDE900051C48CF
:1009300028E0DFF870E0F44529D1D0F800C04CF091
:10094000806CC0F800C0D0F800C001290CF0806CA9
:10095000CDF814C0196007D1016841F00071016041
:10096000006800F000700590106840F00200106010
:100970001068694600F0020005904FF44050CDE940
:100980000005094802AB83E8D00000F0A5F907B0E4
:10099000F0BD0000006400400C0000203038024030
:1009A0000000024000680040000402402DE9F041D0
:1009B0000446876D00F088FA064694F83500002555
:1009C000022806D08020606584F834500120BDE8FC
:1009D000F0812068016821F01601016020684169FA
:1009E00021F080014161206C08B9A06C20B1206821
:1009F000016821F0080101602068016821F001010F
:100A000001600CE000F060FA801B052807D9202067
:100A10006065032084F8350084F83450D7E72068F7
:100A20000068C007EED194F85C103F208840B860A1
:100A3000012084F8350084F834500020C7E790F88E
:100A40003510022903D0802141650120704705211E
:100A500080F835100068016821F001010160002074
:100A6000704700002DE9F84304464FF00009CDF827
:100A7000009063484FF41651A56D0068B0FBF1F784
:100A80002E6894F85C10082000FA01F131420FD072
:100A900021680A6852070BD50A6822F004020A602E
:100AA00094F85C108840A860606D40F001006065BB
:100AB00094F85C104FF0010808FA01F0304208D0B9
:100AC00021684969090604D5A860606D40F00200FC
:100AD000606594F85C1004208840304208D021689A
:100AE0000968890704D5A860606D40F0040060655E
:100AF00094F85C1010208840304218D021680968B2
:100B0000090714D5A86020680168490304D5006866
:100B1000000308D5A16C07E00168C90503D401688A
:100B200021F008010160216C09B12046884794F842
:100B30005C1020208840304231D021680968C90605
:100B40002DD5A86094F8350005282068016806D0E6
:100B5000490347D5006800031DD4616C1CE021F0F7
:100B6000160101602068416921F080014161206C1B
:100B700008B9A06C20B12068016821F0080101606B
:100B800094F85C103F208840A86084F8358084F891
:100B90003490216D1FE0E16B09B120468847606DFC
:100BA00000282BD0606DC00714D0052084F83500D4
:100BB0002068016821F0010101600098401C00904C
:100BC000B84203D820680068C007F6D184F83580A1
:100BD00084F83490E16C002910D001B02046BDE8C3
:100BE000F04308470168C905D5D4016821F0100118
:100BF000016084F8358084F83490CCE7BDE8F88350
:100C00001C0000202DE9F041044600F05DF9064685
:100C10005CB1022084F83500002584F83450206847
:100C2000016821F0010101600DE00120BDE8F081C3
:100C300000F04AF9801B052805D9202060650320B3
:100C400084F83500F2E720680068C007F0D1226818
:100C5000116820480140D4E901031843D4E9033660
:100C60003343184363691843A3691843E36918437E
:100C7000236A18430843616A042903D1D4E90B139A
:100C800019430843106020684069666A20F0070134
:100C900030460E43012704280CD1A06A0643E06ABF
:100CA00040B12046FFF734FD20B14020606584F854
:100CB0003570BAE7206846612046FFF715FD94F8C5
:100CC0005C203F2191408160656584F8357000208B
:100CD000ACE700003F8010F02DE9F84FDFF8BCA131
:100CE0000022012503264FF00F090AF1040BAAF197
:100CF000040E00BF0B6805FA02F42340A34270D132
:100D00000F7907F00307012F01D0022F16D1876852
:100D10004FEA420806FA08FC27EA0C07D1F80CC093
:100D20000CFA08FC4CEA070CC0F808C04768A74357
:100D30000C79C4F3001494403C4344600C79E443C0
:100D4000A4070AD0C4684FEA420C06FA0CF7BC4369
:100D50008F6807FA0CF72743C7600C7904F0030487
:100D6000022C12D1D40800EB840CDCF82040570789
:100D7000FF0E09FA07F824EA0804D1F8108008FAEF
:100D800007F848EA0408CCF8208004684FEA420CCF
:100D900006FA0CF7BC430F7907F0030707FA0CF7C4
:100DA000274307604C6814F4403F70D03C4C2768E0
:100DB00047F480472760246822F0030704F4804446
:100DC0000094384C07EB040CDCF8084897074FEA0E
:100DD000177809FA08F7BC43334FB84202D100270D
:100DE00024E054E0314FB84201D101271EE0304FDA
:100DF000B84201D1022719E02E4FB84201D1032792
:100E000014E02D4FB84201D104270FE02B4FB84218
:100E100001D105270AE02A4FB84201D1062705E093
:100E2000284FB84201D1072700E0082707FA08F742
:100E30002743CCF80878DAF800405746D1F804C0C8
:100E40009C435FEACC2C00D51C433C60DBF800409F
:100E50005F46D1F804C09C435FEA8C2C00D51C434C
:100E60003C60DEF800407746D1F804C09C435FEA5E
:100E70008C3C00D51C433C60084F083F3C68D1F8CF
:100E800004C09C435FEACC3C00D51C433C60521C30
:100E9000102AFFF42FAFBDE8F88F0000083C014096
:100EA000443802400030014000000240000402408B
:100EB00000080240000C02400010024000140240F2
:100EC00000180240001C0240014880687047000082
:100ED0001000002002488168027811448160704748
:100EE000100000200B4810B5016841F4007101604A
:100EF000016841F480610160016841F48071016022
:100F0000032000F09FF80F2000F006F800F050F8E2
:100F1000002010BD003C024030B505461F4887B098
:100F20000024016841F480710160006806A900F4A2
:100F30008070009001A800F031F90498A8B100F089
:100F40004DF940001649174AB0FBF1F11648491E09
:100F5000026040F2E732C0E90324C0E90114846171
:100F600000F046FB040003D015E000F037F9E9E794
:100F70000D4800F06BFB04000DD12D2000F034F87B
:100F8000102D07D2002229462D2000F03BF80748FB
:100F9000056000E0012407B0204630BD4038024023
:100FA00040420F0000200040EC040020140000200C
:100FB0000C4882B0016841F480410160006800F48F
:100FC000804000900748001F016841F08051016097
:100FD0000068002200F0805000900F21901E02B0A7
:100FE00000F010B844380240002809DB00F01F026E
:100FF000012191404009800000F1E020C0F800117B
:1010000070470000F0B40E4B1B680C46C3F302237C
:10101000C3F10705042D00D90425191D072901D2A4
:10102000002300E0DB1E012606FA05F1491E2140DF
:1010300099409E40761E16403143F0BC01F0D3B972
:101040000CED00E0064900F0070208684FF6FF03C8
:10105000184040EA0220034A10430860704700002D
:101060000CED00E00000FA052DE9F0470E46050002
:1010700065D0DFF81481D8F80000F7B200F007005F
:10108000B04207D288F80070D8F8000000F00700DE
:10109000B04254D128683D4C810712D5400703D592
:1010A000206840F4E05020602878000703D52068CD
:1010B00040F4604020602068A96820F0F0000843F8
:1010C00020602878C0072DD0304968680839012889
:1010D00012D0022813D0032811D0096889070029EB
:1010E0002DDA216821F0030101432160FFF7ECFEB6
:1010F000814641F2883A0EE009688903EFE7096802
:101100008901ECE7FFF7E0FEA0EB0901514502D9A8
:101110000320BDE8F0872068696800F00C00B0EBA0
:10112000810FEFD1D8F80010404601F00701B1421D
:1011300007D90770006800F00700B04201D0012015
:10114000E7E72878400705D52068E96820F4E050F3
:10115000084320602878000706D52068296920F414
:10116000604040EAC100206000F058F82168084A59
:10117000C1F30311515CC840064908600648006885
:10118000FFF7CAFE0020C4E7003C024008380240D6
:10119000842F00081C000020140000200F22026091
:1011A0000C4A136803F003034360136803F0F00371
:1011B0008360136803F4E053C36012684FF4E05394
:1011C00003EAD20202610448006800F007000860E8
:1011D0007047000008380240003C024004480549BE
:1011E00000680968044AC1F38221515CC840704715
:1011F0001C00002008380240942F000804480549CC
:1012000000680968044AC1F34231515CC840704724
:101210001C00002008380240942F0008154810B523
:10122000006810F00C02144813D01449042A0FD09F
:10123000082A0ED10F4C241F2268236802F03F02B7
:101240005B0207D52068C0F38810A0FB010106E00F
:10125000084610BD2168C1F38811A1FB00010023DD
:10126000FFF762F82168C1F30141491C4900B0FB56
:10127000F1F010BD083802400024F40040787D01F0
:101280002DE9F84F04006ED02078DFF84C93C007AA
:10129000A9F104054AD009F104000168C1F38101F4
:1012A000012908D00068C0F3810002280AD1D9F8CA
:1012B0000000400206D52868800337D56068002802
:1012C000E1D033E06068B0F5803F10D0B0F5A02FDA
:1012D000286810D020F480302860286820F480200E
:1012E00028606068A8B1FFF7EFFD06460DE02868AA
:1012F00040F48030F4E740F480202860F7E700BF36
:10130000FFF7E2FD801B642873D828688003F7D5B7
:101310000CE0FFF7D9FD064605E000BFFFF7D4FD5E
:10132000801B6428F0D828688003F7D42078DFF881
:10133000AC8280074FF0000A3ED5A748001D016827
:1013400011F00C0F08D00068C0F3810002280BD107
:10135000D9F80000400207D42868800716D5E06855
:10136000012800D112E033E1E068B8B10120C8F8EB
:101370000000FFF7A9FD064605E000BFFFF7A4FD4A
:10138000801B0228C0D828688007F7D52868216903
:1013900020F0F80040EAC10028600DE0C8F800A085
:1013A000FFF792FD064604E0FFF78EFD801B022842
:1013B0001FD828688007F7D42078000722D5864FE9
:1013C00087486169703771B101210160FFF77CFDC9
:1013D000064604E0FFF778FD801B022809D838682C
:1013E0008007F7D50EE0C0F800A0FFF76DFD0646B8
:1013F00005E082E0FFF768FD801B02287DD8386891
:101400008007F7D42078400768D5DFF8CCB10027F3
:101410000BF13C0BDBF80000C0000BD4DBF8001034
:1014200041F08051CBF80010DBF80000012700F0FC
:10143000805000906B4E3068C00510D4306840F486
:1014400080703060FFF740FD009005E0FFF73CFD45
:101450000099401A022850D83068C005F6D55E4E73
:10146000A0686C3601280FD00528306810D020F015
:1014700001003060306820F004003060A068B8B12E
:10148000FFF722FD00900FE0306840F00100F4E724
:1014900040F004003060F7E7FFF716FD0099411AAD
:1014A00041F28830814266D830688007F4D50EE07A
:1014B000FFF70AFD009007E0FFF706FD0099411ACB
:1014C00041F28830814256D830688007F4D42FB179
:1014D000DBF8001021F08051CBF80010A069C8B3F0
:1014E0003D49091D0968C1F3810102294AD002283A
:1014F000504607D0C8F8600000E03CE0FFF7E4FC8D
:1015000004463BE04746C8F86000FFF7DDFC0646AE
:1015100005E000BFFFF7D8FC801B02282BD8286805
:101520008001F7D4D4E907010843A16A2E4A49088B
:1015300002EB0141626A41EA8211084394F82C10DF
:1015400040EA0161C9F8001001203866FFF7BCFCD1
:10155000044606E03EE000BFFFF7B6FC001B022891
:1015600009D828688001F7D534E000BFFFF7ACFC4C
:10157000001B022802D90320BDE8F88F28688001EB
:10158000F4D427E00128F7D0D9F80000E26900F48C
:10159000800191421CD1226A00F03F01914217D193
:1015A00047F6C071626A0140B1EB821F10D1A26A96
:1015B0004FF0FF3300F4403103EB5202B1EB024F26
:1015C00006D194F82C1000F07060B0EB016F01D0E0
:1015D0000120D1E70020CFE7043802400000474255
:1015E000800E4742007000400000FFFF70477047C8
:1015F00010B5040003D094F83D0010B107E00120BD
:1016000010BD002084F83C00204600F01EF80220A7
:1016100084F83D00211D206800F022FD012084F89F
:10162000460084F83E0084F83F0084F8400084F8C7
:10163000410084F8420084F8430084F8440084F8B0
:10164000450084F83D00002010BD704790F83D1023
:10165000012901D001207047022180F83D10016866
:10166000CA6842F00102CA6000681149884214D079
:10167000B0F1804F11D00F4988420ED00E498842F8
:101680000BD00E49884208D00D49884205D00D493B
:10169000884202D00C49884204D1816801F00701D8
:1016A000062903D0016841F0010101600020704764
:1016B000000001400004004000080040000C004011
:1016C000000401400040014000180040704770B520
:1016D0000446006801694FF00005C943890715D425
:1016E000C168C943890711D4E91E0161012020772F
:1016F000206880698007204602D0FFF7E7FF04E0FA
:1017000000F098F8204600F096F8257720680169E7
:10171000C943490717D4C168C943490713D46FF0B7
:1017200004010161022020772068806910F4407F65
:10173000204602D0FFF7CAFF04E000F07BF8204605
:1017400000F079F8257720680169C943090716D4A4
:10175000C168C943090712D46FF008010161042070
:1017600020772068C0698007204602D0FFF7AEFFCF
:1017700004E000F05FF8204600F05DF8257720686F
:101780000169C943C90617D4C168C943C90613D43E
:101790006FF010010161082020772068C06910F403
:1017A000407F204602D0FFF791FF04E000F042F8AE
:1017B000204600F040F8257720680169C943C90731
:1017C00008D1C168C943C90704D1891E01612046F7
:1017D00000F032F820680169C943090609D4C168DC
:1017E000C943090605D46FF0800101612046FFF767
:1017F000FDFE20680169C943490609D4C168C9438F
:10180000490605D46FF040010161204600F01EF842
:1018100020680169C94389060BD4C168C943890698
:1018200007D46FF0200101612046BDE87040FFF74A
:10183000DEBE70BD7047704700680349884201D121
:10184000FFF748BB7047000000200040704770471A
:1018500070470000F8B5016804460868CA684B691B
:1018600010F00F0F4FF0000559D003F0010602F4FD
:101870009077374365D0C10705D0D10503D5216CDA
:1018800041F001012164410705D5D90703D0216C3E
:1018900041F002012164810705D5D90703D0216CED
:1018A00041F004012164010707D502F02001314312
:1018B00003D0216C41F008012164216C00293AD049
:1018C000800604D5900602D5204600F068FC20680A
:1018D0004069216CC0F38010090700D460B3204632
:1018E00000F036FC20684069400621D5206814309D
:1018F00050E8001F21F0400140E80012002AF5D115
:10190000A06BA8B16C490165A06BFFF798F800289F
:1019100011D0A06B016D01B0BDE8F040084783060F
:101920000FD593060DD52046BDE8F84000F037BC32
:101930002046FFF78DFFF8BD2046FFF789FF25649D
:10194000F8BD266B2023012E79D1C60677D5D606A1
:1019500075D50868486800904869400640D5A16B75
:10196000086840680004000CEAD0A28D8242E7D9E2
:10197000E085C869B0F5807F2DD020680C3050E834
:10198000001F21F4807140E80012002AF5D1206880
:10199000143050E8001F21F0010140E80012002A35
:1019A000F5D12068143050E8001F21F0400140E8D4
:1019B0000012002AF5D184F83E30256320680C30EF
:1019C00050E8001F21F0100140E80012002AF5D174
:1019D000A06BFEF7EBFFA08DE18D401A81B229E0EC
:1019E000A08DE18D401A81B2E08D0028A8D0002999
:1019F000A6D020680C3050E8002F22F4907240E806
:101A00000026002EF5D12068143050E8002F22F077
:101A1000010240E80026002EF5D184F83E3025630F
:101A200020680C3050E8002F22F0100240E800231C
:101A3000002BF5D12046FFF70AFFF8BDFFE70506AA
:101A40002BD5150629D594F83D002128F5D1A0689D
:101A5000B0F5805F01D12069B0B1206A411C2162DC
:101A6000216800784860E08C401E0004000CE0848F
:101A7000E3D12068C16821F08001C1602068C1689D
:101A800041F04001C160D8E7206A0088C0F3080037
:101A90004860206A801C2062E5E74006CDD55006EC
:101AA000CBD5CA68204622F04002CA6084F83D3097
:101AB00000F059F9C1E700004121000870B50400A9
:101AC00004D094F83D00002510B106E0012070BD5F
:101AD00084F83C50204600F023F8242084F83D0090
:101AE0002068C16821F40051C160204600F0B8FBB5
:101AF0002068016921F4904101612068416921F069
:101B00002A0141612068C16841F40051C160256427
:101B1000202084F83D0084F83E00002070BD0000C5
:101B20002DE9F04786B0064614216846FEF7EAFC28
:101B30005848DFF85CC13368564910380325022243
:101B4000082700244FF000694FF4806A63454CD1A8
:101B50000B6843F400230B60096801F40021059130
:101B6000016841F0010101600068CDE9005200F018
:101B70000100CDE9047069464748CDE90245FFF709
:101B8000ABF8474D4548C8462860C5E90194C5E90A
:101B9000034A6C61AC61EC612C62574628466C626A
:101BA000FFF730F808B1FEF7DEFDB563AE633C4DDC
:101BB0003A4860353030E5E80208402091C53848A1
:101BC00045F814496030AC61EC612C626C62FFF73F
:101BD00019F808B1FEF7C7FD75630022052134200E
:101BE000AE63FFF70FFA34204DE0DFF8B8C063456D
:101BF0004BD10B6843F480130B60096801F480112A
:101C00000591016841F004010160016801F00401DF
:101C10000591016841F008010160006802AB00F025
:101C2000080005904FF48050CDE9000283E8B00031
:101C3000904669461C48FFF74FF80420CDE900089C
:101C400002AB694683E8B0001848FFF745F8144D29
:101C50001248C03530382860C5E90194C5E9034A07
:101C60006C61AC61EC612C6228466C62FEF7CAFFC5
:101C700008B1FEF778FDB563002205213520AE637B
:101C8000FFF7C0F93520FFF7AFF906B0BDE8F087E0
:101C9000004C0040403802400000024040600240DA
:101CA000CC0300200050004000080240000C02401D
:101CB000704700002DE9F843044690F83D001F46A8
:101CC00016460D4620284CD1C5B1BEB194F83C0053
:101CD000012846D0012084F83C004FF00008C4F8E9
:101CE0004080212084F83D00FFF7EEF8A68481466D
:101CF000E684A068B0F5805F03D004E00120BDE871
:101D0000F883206928B12E465FF0000584F83C80F6
:101D10000EE00026FAE78021204600F027FBA0B95C
:101D2000AEB116F8010B21684860E08C401EE084DB
:101D3000E08C4B464FF0000200970028EBD14FF0AB
:101D40004001204600F012FB30B10320D7E735F800
:101D5000020BC0F30800E6E7202084F83D000020D5
:101D6000CDE70220CBE77047FEE700F005F8012041
:101D700000F077FBF9E7000000B5044800F044FBF1
:101D800002485DF804EB0C3000F046BBCC4200206A
:101D90000D4810B50B4901601021416000218160A0
:101DA000C16001614161017641768176C17601773A
:101DB0004177FEF7FFFC002803D0BDE81040FEF796
:101DC000D2BC10BD00640040F40200200D4810B5E4
:101DD0000B4901601021416000218160C1600161F7
:101DE0004161017641768176C17601774177FEF7D0
:101DF000E1FC002803D0BDE81040FEF7B4BC10BDE4
:101E0000006800401C030020114808B5016841F437
:101E1000001101600068002200F40010009005210C
:101E20000B20FFF7EFF80B20FFF7DEF8002205216B
:101E30000D20FFF7E7F80D20FFF7D6F80022052167
:101E40000F20FFF7DFF8BDE808400F20FFF7CCB800
:101E50003038024010B596B01C2211496846FEF792
:101E60001FFB0021684600F00AFB0E4C0C491C22A7
:101E700020601C3107A8FEF713FB002107A800F023
:101E8000FEFA074960601C2238310EA8FEF708FBF5
:101E900000210EA800F0F3FAA06016B010BD0000FB
:101EA000282F000800000020154808B5016841F0FF
:101EB00080010160016801F080010091016841F03A
:101EC00001010160016801F001010091016841F028
:101ED00002010160016801F002010091016841F016
:101EE00004010160016801F004010091016841F002
:101EF00008010160006800F00800009008BD0000C3
:101F0000303802400C4810B50A4901604FF4E13105
:101F10004160002181600C22C160C0E9041281612E
:101F2000C161FFF7CBFD002803D0BDE81040FEF7EC
:101F30001ABC10BD004C0040440300200C4810B5F2
:101F40000A4901604FF461214160002181600C2247
:101F5000C160C0E904128161C161FFF7AFFD0028D3
:101F600003D0BDE81040FEF7FEBB10BD005000409E
:101F700088030020FEE7FEE7012000F072FAFBE78D
:101F800010B5502080F31188BFF34F8FBFF36F8FD0
:101F900000F0FCFE18B104494FF0805008600020AA
:101FA00080F3118810BD000004ED00E030B593B05F
:101FB00030216846FEF7A6FA14210CA8FEF7A2FA13
:101FC0001E480025016841F080510160006800F062
:101FD000805011901A48016841F480410160006806
:101FE000022400F480401190012000900004019030
:101FF0008001CDE90640192008904FF4A870CDE982
:10200000090404200B906846FFF73AF908B172B64C
:10201000FEE70CA90F2081E831004FF4A0500F908B
:102020004FF48050109005210CA8FFF71DF80028F0
:1020300001D072B6FEE713B030BD00004038024058
:10204000007000400248016841F47001016070476F
:1020500088ED00E00148FFF73ABB0000EC040020E7
:10206000F0B50268254C264D264E274F274B4FF0E2
:10207000804CA04209D0604507D0A84205D0B042AC
:1020800003D0B84201D0984204D122F0700E4A68C1
:1020900042EA0E02A0421BD0604519D0A84217D0D8
:1020A000B04215D0B84213D0984211D0184DA84272
:1020B0000ED0184DA8420BD0174DA84208D0174D8E
:1020C000A84205D0164DA84202D0164DA84203D111
:1020D00022F44075CA682A434D6922F080022A43DF
:1020E00002608A68C2620A688262A04201D0984295
:1020F00001D10969016301214161F0BD0000014086
:102100000004004000080040000C004000040140B2
:1021100000400140004401400048014000180040D8
:10212000001C0040002000400148FFF793BB000066
:10213000440300200148FFF78DBB00008803002006
:1021400010B5806B0021C185C184FFF781FB10BDF4
:1021500001680C3151E8002F22F4907241E800230D
:10216000002BF5D10168143151E8002F22F0010253
:1021700041E80023002BF5D1016B012909D1016849
:102180000C3151E8002F22F0100241E80023002B0F
:10219000F5D1202180F83E1000210163704708B579
:1021A00090F83E10222901D0022008BD82684FF429
:1021B00080539A4201D1016921B1816A9A421BD0B0
:1021C0004AB10AE00268816A5268C2F308020A80D2
:1021D000816A891C08E0026972B10268526802F0E3
:1021E0007F020A70816A491C8162C18D491E0904FF
:1021F000090CC18503D019E002685268F1E7016853
:10220000CA6822F02002CA600168CA6822F480729B
:10221000CA6001684A6922F001024A61202180F8FF
:102220003E10016B012903D0FFF742FD002008BDDD
:102230000021016301680C3151E8002F22F01002E7
:1022400041E80023002BF5D101680A68D20602D5C7
:102250000A6849680091818DFFF7F9FAE6E7000006
:1022600070B5044600680169E26821F440511143E9
:1022700001612169A068E26908436169114308436B
:102280002168CA6849F20C639A430243CA60206815
:102290004169A26921F440711143416131492068CB
:1022A000884202D03049884202D1FEF7A7FF01E000
:1022B000FEF794FFE2690023192164253226B2F566
:1022C000004F626828D0A0FB0101930F9200FEF737
:1022D0002BF80146B0FBF5F06FF01802504301EB0C
:1022E000800006EB0010B0FBF5F000F0F002B1FB4F
:1022F000F5F002EB0012B1FBF5F06FF01803584354
:1023000001EB800006EB0010B0FBF5F000F00F00D1
:1023100021681044886070BDA0FB010192185B41E8
:10232000FEF702F80146B0FBF5F00201B1FBF5F053
:102330006FF01803584301EB800006EBC000B0FBC0
:10234000F5F000F0F80002EB4002B1FBF5F0584365
:1023500001EB800006EBC000B0FBF5F000F00700D9
:10236000D6E7000000100140001401402DE9F041C3
:10237000984617460E460446069D27E0681C25D061
:102380002DB1FEF7A1FDA0EB0800A8421ED92068E0
:102390000C3050E8001F21F4D07140E80012002AF0
:1023A000F5D12068143050E8001F21F0010140E809
:1023B0000012002AF5D1202084F83D0084F83E0068
:1023C000002084F83C000320BDE8F081206800680C
:1023D00036EA000004D00020B842CFD00020F3E756
:1023E0000120F9E7FEE70907090E002804DB00F1E8
:1023F000E02080F80014704700F00F0000F1E020AA
:1024000080F8141D70470000024B0ECB80E80E00D0
:1024100000207047B042002003498A680260898921
:10242000818000207047000088000020FEF75AFDE0
:10243000FFF7BCFDFFF738FDFFF7E6FCFFF7A8FC50
:10244000FFF7C4FCFFF75EFDFFF778FDFFF702FD25
:1024500000F010F8FEE701460020842900D0C81CD7
:10246000704710B500B9012000F026FB002010BD18
:102470008120704710B500F045FB002010BD7FB5EE
:102480000D4604464169B0F9080081B1A16971B1F6
:10249000FFF7E1FFD4E905128DE80700D4E9001049
:1024A0002B46226900F041FC039004B070BDFFF799
:1024B000D2FF03A9CDE90001208A2B4682B2D4E9DC
:1024C000001000F005FC012801D00020EDE7039882
:1024D000EBE700002DE9F041184C0F460546E66891
:1024E0002068001D00F020FA38B9206890F82C1000
:1024F00001208840216981432161681C07D137B1DF
:102500002168BDE8F0410E48091D00F051BA20686D
:102510003544B5424560216805D2A06BBDE8F04165
:10252000091D00F02DBA606B091D00F029FAA06AA0
:10253000854200D2A562BDE8F081000020000020A5
:10254000100600202DE9F041054600F03DFA2E4C22
:10255000A068401CA06020682C4F10B1606940B397
:102560002DE02560A068012829D1002606EB860011
:1025700007EB800000F0F6F9761C072EF6D323480F
:102580008C3000F0EFF92148A03000F0EBF91F4843
:10259000B43000F0E7F91D48C83000F0E3F91B48FB
:1025A000DC3000F0DFF919488C3060631430A06330
:1025B00005E02068E96AC06A884200D82560606A40
:1025C000401C6062E96A0120226988401043206152
:1025D00001EB810007EB8000291D00F0E9F900F014
:1025E00013FA606900280CD02068E96AC06A884242
:1025F00007D207494FF080500860BFF34F8FBFF3F9
:102600006F8FBDE8F081000020000020340500201D
:1026100004ED00E010B5044690F8510058B10128CF
:102620000CD002280FD0502080F31188BFF34F8FB9
:10263000BFF36F8FFEE7206B00F0FAF92046BDE88C
:10264000104000F0F5B910BD10484FF4705142072A
:1026500006D0C01D0D4920F00700411AC1F5705188
:102660000B4A00230144C2E900030839183A21F05B
:10267000070111604B600B600B1AC0E900139360F7
:102680004FF0004053605061704700002406002066
:1026900074000020144E154CA6F1C8074FF0805866
:1026A000DFF84C9012E000BF00F08EF9F068C568CA
:1026B000281D00F039F9A068401EA0606068401E27
:1026C000606000F0A1F92846FFF7A4FF60680028C9
:1026D000EAD138680128F9D9C9F80080BFF34F8FD3
:1026E000BFF36F8FF2E70000FC0500202000002000
:1026F00004ED00E02DE9F0479A46DDE909848146C2
:102700006FF00303206B03EB82021044089E20F05D
:102710000707780707D0502080F31188BFF34F8F49
:10272000BFF36F8FFEE7002561B1002023180A5C1C
:1027300083F834200A5C12B1401C1028F6D384F8C8
:10274000435001E084F83450072E00D30626E66299
:10275000C4E91165201D00F010F904F1180000F023
:102760000CF92461C6F107006462A061E56484F895
:10277000505052464946384600F0C0F82060B8F143
:10278000000F01D0C8F80040BDE8F08730B511490E
:1027900000E011460A688242FBD34B685C18844211
:1027A00003D1406818444860084643681C189442A6
:1027B00009D1084C183C2468A24209D052681A4436
:1027C00042600A6812680260814200D0086030BD31
:1027D0000460F9E7740000200648416B096829B1DC
:1027E000416BC968C9684968816270474FF0FF3121
:1027F000FAE700002000002008484068401C4FF025
:10280000500080F3118804D0BFF34F8FBFF36F8F58
:10281000FEE7BFF34F8FBFF36F8FFEE77C00002012
:102820002DE9F0410546002700F0A2F9324E30684C
:1028300008B9FFF709FF706905424ED1C5B30835E5
:1028400068070ED005F00700C0F1080005446807CE
:1028500007D0502080F31188BFF34F8FBFF36F8FE5
:10286000FEE72DB37068854237D8234818300146FB
:102870000C6801E020460C466168A94202D221683A
:102880000029F7D131688C4227D0076821680160A0
:1028900060680837411B10290FD96019420708D01A
:1028A000502080F31188BFF34F8FBFF36F8FFEE787
:1028B00013E041606560FFF769FF61687068401A66
:1028C0007060B268904200D2B0607069014300202D
:1028D000C4E90001F068401CF06000F0BDFA780720
:1028E00007D0502080F31188BFF34F8FBFF36F8F55
:1028F000FEE73846BDE8F0815C00002010B5031FFC
:102900004FF080741C601B1F21F001011960191F1A
:10291000044B0B6014390A60091F6FF0020244383F
:102920000A6010BDF9270008D0E9013201699A60F8
:10293000D0E901235A604A68824201D182684A6024
:10294000002202610868401E0860086870470000A5
:10295000034B036003F1540008608020106070474F
:10296000A000002000F108014FF0FF32C0E9011281
:10297000C160016100210160704700210161704761
:1029800030B50B685A1C02D000F1080202E002695F
:1029900004E02246546825689D42FAD953684B608A
:1029A00099608A60516008610168491C016030BD0E
:1029B00042684A6093688B609368596091600861CF
:1029C0000168491C01607047502080F31188BFF3F3
:1029D0004F8FBFF36F8F0A494868401C4860012839
:1029E0000CD10848006810F0FF0F07D0502080F38A
:1029F0001188BFF34F8FBFF36F8FFEE77047000062
:102A00007C00002004ED00E00849486828B1401E21
:102A1000486001D180F311887047502080F31188FD
:102A2000BFF34F8FBFF36F8FFEE700007C000020E5
:102A300070B500282AD0164DA0F1080460686969B5
:102A4000084207D1502080F31188BFF34F8FBFF3A6
:102A50006F8FFEE722683AB1502080F31188BFF3F0
:102A60004F8FBFF36F8FFEE78843606000F080F800
:102A700060686968084468602046FFF787FE286937
:102A8000401C2861BDE8704000F0E6B970BD000050
:102A90005C0000204FF0E0200021016181610549C8
:102AA0004FF47A720968B1FBF2F1491E41610721C6
:102AB000016170471C00002010B5020014D00F48BF
:102AC000006B38B1502080F31188BFF34F8FBFF3F4
:102AD0006F8FFEE700F04CF800211046FFF7FAFC7C
:102AE00000F0BAF9002807D105494FF0805008607E
:102AF000BFF34F8FBFF36F8F10BD00002000002089
:102B000004ED00E010B586B00024039405AA04A9E2
:102B100003A80494FFF71CFFDDE903010094CDE94D
:102B2000011000230EA11048059A00F0FEF80F498D
:102B30000028C86211D0502080F31188BFF34F8F56
:102B4000BFF36F8F4FF0FF30886201204861CC6087
:102B500006B0BDE8104000F041B806B010BD00005E
:102B600049444C4500000000952600082000002044
:102B70000248016B491C01637047000020000020DF
:102B80001448016B11B10121C16170470021C1617D
:102B90000169B1FA81F1C1F11F0101EB81020E4916
:102BA00051F822306BB101EB820101F108034A6850
:102BB00052684A609A4201D152684A60D168016005
:102BC0007047502080F31188BFF34F8FBFF36F8F92
:102BD000FEE7000020000020340500201CB5374827
:102BE0000168374A914207D1502080F31188BFF322
:102BF0004F8FBFF36F8FFEE700683149491E88424F
:102C000007D1502080F31188BFF34F8FBFF36F8F30
:102C1000FEE72C4908780190FF20087008788DF8AD
:102C200000009DF800009DF8002000F0F0009042A8
:102C300007D0502080F31188BFF34F8FBFF36F8F01
:102C4000FEE79DF80000204C00F0500020700720A7
:102C5000A06005E09DF8002052008DF80020401E85
:102C60009DF800201206F5D4A060032807D050205C
:102C700080F31188BFF34F8FBFF36F8FFEE74FF4E0
:102C80004070A060019808700C482030016841F441
:102C900070010160016841F070410160FFF7FAFEC8
:102CA00000206060FDF7E4FA0848016841F0404107
:102CB0000160FDF7C9FA00201CBD000000ED00E036
:102CC00071C20F4100E400E07C00002034EF00E01E
:102CD0002DE9FF5F8346DDE90E87994616468A4651
:102CE0009000FFF79DFD05001CD05420FFF798FDD4
:102CF000040014D00020256384F85100CDE902407F
:102D0000CDE900874B46324651465846FFF7F2FC64
:102D10002046FFF717FC012004B0BDE8F09F2846CD
:102D2000FFF786FE4FF0FF30F6E7F0B585B0DDE93E
:102D30000B640A9DA6B1DCB15427009726630226D6
:102D400084F85160002604AFCDE90246CDE9005772
:102D5000FFF7D0FC2046FFF7F5FB049805B0F0BD67
:102D6000502080F31188BFF34F8FBFF36F8FFEE7C2
:102D7000502080F31188BFF34F8FBFF36F8FFEE7B2
:102D80000148C06870470000200000202DE9F04194
:102D90002F4C0026206B28B1A069401CA061304652
:102DA000BDE8F081E5686D1CE56013D1606B0068DB
:102DB00038B1502080F31188BFF34F8FBFF36F8F6E
:102DC000FEE7606BA16B6163A063206A401C206218
:102DD000FFF702FDA06ADFF87C80854209D3606BB3
:102DE0000068A0B1606BC068C7687868854211D27E
:102DF000A0622068C06A00EB800158F82100012819
:102E000000D90126E0690028C9D00126C7E74FF0A4
:102E1000FF30EDE7381DFFF787FDB86A18B107F1FD
:102E20001800FFF781FDF96A0120226988401043EC
:102E3000206101EB810108EB8100391DFFF7B8FD2E
:102E4000F86A2168C96A8842C9D30126C7E7000029
:102E500020000020340500202DE9F0472C4D0024EF
:102E60002746286B38B1FFF7AFFD286B401E28635B
:102E7000286B40B146E0502080F31188BFF34F8F9C
:102E8000BFF36F8FFEE7A968224E0120D1B3A6F1F0
:102E9000B40980463068E8B1F068C46804F11800ED
:102EA000FFF742FD201DFFF73FFDE06A2A6908FA9F
:102EB00000F11143296100EB800109EB8100211D24
:102EC000FFF776FDE06A2968C96A8842E2D3C5F84F
:102ED0001C80DFE70CB1FFF77FFCAC6944B14646CC
:102EE000FFF754FF00B1EE61641EF9D10020A86124
:102EF000E86938B10849012738070860BFF34F8FE8
:102F0000BFF36F8FFFF780FD3846BDE8F087000004
:102F100020000020E805002004ED00E04FF04070A4
:102F2000E1EE100A704700009C320008791F00088B
:102F30000000000000000000800000000000000011
:102F400000000000B4320008110600080200000072
:102F50000000000000010000000000000000000070
:102F6000A83200086B1D00080200000000000000ED
:102F700080000000000000000000000000061016A5
:102F8000000610160000000000000000010203040B
:102F9000060708090000000001020304005EBCE20D
:102FA000613FDD83C29C7E20A3FD1F419DC3217F25
:102FB000FCA2401E5F01E3BD3E6082DC237D9FC119
:102FC000421CFEA0E1BF5D0380DE3C62BEE0025C0D
:102FD000DF81633D7C22C09E1D43A1FF4618FAA4F9
:102FE00027799BC584DA3866E5BB5907DB856739E5
:102FF000BAE406581947A5FB7826C49A653BD987D9
:10300000045AB8E6A7F91B45C6987A24F8A6441ACC
:1030100099C7257B3A6486D85B05E7B98CD2306EB8
:10302000EDB3510F4E10F2AC2F7193CD114FADF3A4
:10303000702ECC92D38D6F31B2EC0E50AFF1134D98
:10304000CE90722C6D33D18F0C52B0EE326C8ED08C
:10305000530DEFB1F0AE4C1291CF2D73CA94762878
:10306000ABF517490856B4EA6937D58B5709EBB564
:1030700036688AD495CB2977F4AA4816E9B7550B58
:1030800088D6346A2B7597C94A14F6A8742AC8964C
:10309000154BA9F7B6E80A54D7896B35000089119A
:1030A00012239B322446AD573665BF74488CC19DB0
:1030B0005AAFD3BE6CCAE5DB7EE9F7F88110080190
:1030C00093331A22A5562C47B7753E64C99C408D90
:1030D000DBBF52AEEDDA64CBFFF976E802218B302C
:1030E000100299132667AF763444BD554AADC3BC70
:1030F000588ED19F6EEBE7FA7CC8F5D983310A2050
:1031000091121803A7772E66B5543C45CBBD42AC4F
:10311000D99E508FEFFB66EAFDD874C904428D53E7
:1031200016619F702004A9153227BB364CCEC5DF2F
:103130005EEDD7FC6888E1997AABF3BA85520C430F
:1031400097711E60A1142805B3373A26CDDE44CF0F
:10315000DFFD56ECE9986089FBBB72AA06638F72AB
:1031600014409D512225AB343006B9174EEFC7FEEF
:103170005CCCD5DD6AA9E3B8788AF19B87730E62CF
:1031800095501C41A3352A24B1163807CFFF46EECF
:10319000DDDC54CDEBB962A8F99A708B0884819577
:1031A0001AA793B62CC2A5D33EE1B7F04008C919BF
:1031B000522BDB3A644EED5F766DFF7C899400857F
:1031C0009BB712A6ADD224C3BFF136E0C11848099F
:1031D000D33B5A2AE55E6C4FF77D7E6C0AA583B41B
:1031E000188691972EE3A7F23CC0B5D14229CB387F
:1031F000500AD91B666FEF7E744CFD5D8BB502A43F
:1032000099961087AFF326E2BDD034C1C3394A285E
:10321000D11A580BE77F6E6EF55C7C4D0CC685D7D6
:103220001EE597F42880A1913AA3B3B2444ACD5B3E
:103230005669DF78600CE91D722FFB3E8DD604C7FE
:103240009FF516E4A9902081BBB332A2C55A4C4B1E
:10325000D7795E68E11C680DF33F7A2E0EE787F69A
:103260001CC495D52AA1A3B03882B193466BCF7AFE
:103270005448DD59622DEB3C700EF91F8FF706E6BE
:103280009DD414C5ABB122A0B9923083C77B4E6ADE
:10329000D5585C49E33D6A2CF11E780F6465666180
:1032A000756C745461736B00696D755F7461736BD9
:1032B0000000000062696E675F64697900000000C9
:1032C000E032000800000020A0000000C401000857
:1032D00080330008A0000020F8480000E00100084A
:1032E00000000000000000000000000000000000DE
:1032F0000100000010000000000000000024F400A5
:1033000000000000000000000000000000000000BD
:1033100000000000000000000000000000000000AD
:10332000000000000000000000000000000000009D
:10333000000000000000000000000000000000008D
:10334000000000000000000000000000000000007D
:10335000000000000000000000000000000000006D
:10336000AAAAAAAA000000000000000000000000B5
:103370000000000000000000000000000000FFFF4F
:040000050800018965
:00000001FF
