:020000040800F2
:10000000805D0020290300080D3B0008CF35000863
:10001000013B00084F060008794C00080000000072
:10002000000000000000000000000000690200085D
:100030001B0D000800000000C5020008CD400008AC
:100040004303000843030008430300084303000878
:100050004303000843030008430300084303000868
:100060004303000843030008430300084303000858
:10007000B10B0008C10B000843030008D10B0008B6
:10008000E10B000843030008430300084303000892
:1000900081060008430300084303000843030008E7
:1000A0004303000843030008430300084303000818
:1000B0004303000843030008430300084303000808
:1000C00043030008430300084303000843030008F8
:1000D00043030008C14B0008D54B0008E94B00085A
:1000E00043030008430300084303000843030008D8
:1000F000430300081D4200084303000843030008AF
:1001000043030008430300084303000843030008B7
:100110001543000843030008430300084303000895
:100120004303000843030008F10B000843030008E1
:100130004303000800000000000000004303000823
:10014000BD060008430300084303000843030008FA
:100150004303000843030008010C0008FD4B00089E
:100160004303000843030008430300084303000857
:1001700043030008430300080000000000000000E3
:10018000430300084303000800F002F800F05CF8A5
:100190000AA090E8000C82448344AAF10107DA45E2
:1001A00001D100F051F8AFF2090EBAE80F0013F0D8
:1001B000010F18BFFB1A43F001031847B066000097
:1001C000D06600000A444FF0000C10F8013B13F019
:1001D000070408BF10F8014B1D1108BF10F8015BA0
:1001E000641E05D010F8016B641E01F8016BF9D193
:1001F00013F0080F1EBF10F8014BAD1C0C1B09D1EA
:100200006D1E58BF01F801CBFAD505E014F8016B5B
:1002100001F8016B6D1EF9D59142D6D370470000ED
:100220000023002400250026103A28BF78C1FBD8FF
:10023000520728BF30C148BF0B6070471FB505F09B
:1002400081FF1FBD10B510BD00F0CCF91146FFF7BE
:10025000F5FF04F0C6FE00F0EAF903B4FFF7F2FF81
:1002600003BC00F0EDF900002C4B19680868B0E8F9
:10027000F04F80F30988BFF36F8F4FF0000080F3D9
:10028000118870470000000008480068006880F38B
:1002900008884FF0000080F3148862B661B6BFF39F
:1002A0004F8FBFF36F8F00DF00BF00BF08ED00E08E
:1002B000DFF80C00016841F470010160704700BF75
:1002C00088ED00E0EFF30980BFF36F8F134B1A68DE
:1002D0001EF0100F08BF20ED108A20E9F04F1060CB
:1002E00009B44FF0500080F31188BFF34F8FBFF374
:1002F0006F8F05F077FC4FF0000080F3118809BC88
:1003000019680868B0E8F04F1EF0100F08BFB0EC95
:10031000108A80F30988BFF36F8F7047640E002046
:10032000EFF30580704700000948804709480047FF
:10033000FEE7FEE7FEE7FEE7FEE7FEE7FEE7FEE795
:10034000FEE7FEE704480549054A064B70470000F2
:10035000B54100088901000880570020805D002019
:10036000805900208059002053EA020C00F0698077
:100370002DE9F04B4FF00006002B1FBFB3FA83F5B9
:1003800003FA05F424FA05F65E4012BF1643B2FAEA
:1003900082F502FA05F4C5F120051EBF22FA05FC1C
:1003A00044EA0C04203556EA044C4FEA144418BFC2
:1003B000641C4FF000084FF00009904271EB030CF1
:1003C00039D3002919BFB1FA81F701FA07F6B0FA5B
:1003D00080F700FA07F6C7F120071EBF20FA07FCD6
:1003E00046EA0C062037B6FBF4FCA7EB0507103FE6
:1003F00007F01F0BCBF120060CFA0BFB2CFA06F6CC
:1004000044BFB3460026202FA4BF5E464FF0000B2A
:100410005BEA060C08BF4FF0010B19EB0B09ABFBB5
:10042000027C48EB0608C01B06FB02CC0BFB03CC8E
:1004300071EB0C01C1E70B46024641464846BDE858
:10044000F08B13B54FF000004FF00001AFF30080C8
:10045000BDE81C407047032A40F2308010F0030CC6
:1004600000F0158011F8013BBCF1020F624498BF07
:1004700011F801CB00F8013B38BF11F8013BA2F1A4
:10048000040298BF00F801CB38BF00F8013B11F01F
:10049000030300F02580083AC0F0088051F8043BBF
:1004A000083A51F804CBA0E80810F5E7121D5CBF2C
:1004B00051F8043B40F8043BAFF30080D20724BF5F
:1004C00011F8013B11F801CB48BF11F8012B24BFF3
:1004D00000F8013B00F801CB48BF00F8012B704742
:1004E00010B5203AC0F00B80B1E81850203AA0E8CF
:1004F0001850B1E81850A0E81850BFF4F5AF5FEA03
:10050000027C24BFB1E81850A0E8185044BF18C9B5
:1005100018C0BDE810405FEA827C24BF51F8043B5C
:1005200040F8043B08BF7047D20728BF31F8023BB0
:1005300048BF11F8012B28BF20F8023B48BF00F844
:10054000012B70474FF000020429C0F0128010F018
:10055000030C00F01B80CCF1040CBCF1020F18BF9F
:1005600000F8012BA8BF20F8022BA1EB0C0100F032
:100570000DB85FEAC17C24BF00F8012B00F8012B05
:1005800048BF00F8012B70474FF0000200B513463A
:1005900094469646203922BFA0E80C50A0E80C50A3
:1005A000B1F12001BFF4F7AF090728BFA0E80C5054
:1005B00048BF0CC05DF804EB890028BF40F8042B4D
:1005C00008BF704748BF20F8022B11F0804F18BFBA
:1005D00000F8012B7047704770477047004870471C
:1005E000205700207546FFF7F9FFAE460500694623
:1005F000534620F00700854618B020B5FFF7A2FE4D
:10060000BDE820404FF000064FF000074FF0000813
:100610004FF0000B21F00701AC46ACE8C009ACE894
:10062000C009ACE8C009ACE8C0098D46704710B5F8
:100630000446AFF300802046BDE81040FFF70DBE32
:1006400001491820ABBEFEE726000200704700BF3C
:10065000FEE7000000B58BB001A9084800F04CF897
:1006600001A9064800F03CFD0221044800F07EFC90
:10067000024801F0C6F90BB000BD000020110020B7
:1006800010B5024800F089FE10BD000020110020C6
:1006900000B58BB001A9084800F02EF801A9064862
:1006A00000F01EFD0221044800F060FC024801F049
:1006B000A8F90BB000BD00004811002010B5024899
:1006C00000F06BFE10BD0000481100204A780B7846
:1006D00042EA032212B20280CA788B7842EA0322ED
:1006E00012B242804A790B7942EA032212B2828026
:1006F0008A7982717047000000228A610122CA61F2
:1007000000220A604A608A60CA604A610A61012266
:100710000A620E224A62074B02689A4202D1002204
:100720004A6105E0044B02689A4201D10E224A61F7
:10073000704700000064004000680040F8B50746BC
:100740000C4615461E464FF400700D490860002007
:100750008860C86008200861380A0A4908704F702C
:10076000200A8870CC70280A08714D71300A88718F
:10077000CE716B460A460249034800F00CFCF8BDF6
:10078000601500201C0000202011002000B5D0EDD5
:10079000021AB0EE611AD0ED011AF0EE610AD0ED46
:1007A000001AB0EE610A03F075FC80ED030AD0ED8B
:1007B000021AB0EE611AD0ED011AF0EE610AD0ED26
:1007C000001AF1EE611AB0EE610A03F063FC80EDED
:1007D000040AD0ED021AB0EE611AD0ED011AF1EE62
:1007E000611AF0EE610AD0ED001AF1EE611AB0EE76
:1007F000610A03F04FFC80ED050AD0ED021AB0EE5D
:10080000611AD0ED011AF1EE611AF0EE610AD0ED35
:10081000001AB0EE610A03F03DFC80ED060A00BD4F
:1008200010B51B4800F04CF8BDEEC00A10EE100ADF
:1008300000B2184908801648AC3000F041F8BDEE0F
:10084000C00A10EE100A00B212494880124800F0A7
:1008500037F8BDEEC00A10EE100A00B20D498880CC
:100860000D48AC3000F02CF8BDEEC00A10EE100AB6
:1008700000B20849C8800C46B4F90630B4F9042027
:10088000B4F90210B4F90000FFF758FF10BD0000E2
:100890006C00002010040020C401002010B50648A0
:1008A0008078064908700448C07881F8600300F039
:1008B0003FF900F035F810BD480000206800002026
:1008C00070B52DED028B044604F12005B4F9020049
:1008D00001EE100AB8EEC11AF0EE410A94ED051AC5
:1008E000B0EE410A284603F013F9B0EE408AB0EEAC
:1008F000480ABDEC028B70BD024991F8601380F884
:10090000881070476800002010B504462046FFF7A5
:100910003DFF204600F094F8FFF782FF10BD000075
:1009200010B5074800F0A0F80548AC3000F09CF87E
:10093000044800F099F80348AC3000F095F810BD79
:100940008C000020E401002010B53448007D00F048
:10095000010048B1324890EDE00ADFED320A30EE96
:10096000200A80EDE00A35E02C48007DC0F340000D
:1009700048B12B4890EDE00ADFED2A0A30EE600A1C
:1009800080EDE00A26E02548007DC0F3800048B1F4
:10099000234890EDE10ADFED230A30EE600A80ED96
:1009A000E10A17E01D48007DC0F3C00048B11C48B3
:1009B00090EDE10ADFED1B0A30EE200A80EDE10A3E
:1009C00008E09FED190A164880EDE00A9FED160A2F
:1009D00080EDE10ADFED150A9FED150A154804F0D8
:1009E00084F9DFED120A9FED120A1248001D04F08F
:1009F0007CF91148B0F9000000EE100AF8EEC00AC8
:100A00009FED0E0A0B48AC3803F082F8044880EDE5
:100A1000E20A0848FFF778FF10BD0000B815002073
:100A2000680000200000FA430000000000007AC4C3
:100A300000007A44E80300200804002000803B45C1
:100A400090ED030A074981ED060A90ED040A81ED55
:100A5000310A90ED050A81ED5C0A90ED060A81ED00
:100A6000870A70476800002010B5044694F8880093
:100A7000012808D002280ED10C480D4902682046F2
:100A8000FFF7E9FC0FE0094809490C3902682046E4
:100A9000FFF7E1FC07E005480549183902682046E0
:100AA000FFF7D9FC00BF00BF10BD00000C04002000
:100AB000920D002010B51C48C0884FF4FA5110FB6D
:100AC00001F04FF4257190FBF1F000EE100AB8EE42
:100AD000C00A164880EDD90A134880884FF4FA51AD
:100AE00010FB01F04FF4257190FBF1F000EE100ABD
:100AF000B8EEC00A0D4880EDDA0A0B4800884FF4C2
:100B0000FA5110FB01F04FF4257190FBF1F000EE6B
:100B1000100AB8EEC00A054880EDDB0A00F55970EE
:100B2000FFF7F2FE10BD0000B8150020680000209D
:100B300000B50748FFF7E0FE0548AC30FFF7DCFEE4
:100B40000448FFF7D9FE0348AC30FFF7D5FE00BDDF
:100B50008C000020E401002010B500200849088026
:100B600048808880C8800C46B4F90630B4F9042067
:100B7000B4F90210B4F90000FFF7E0FD10BD000069
:100B80001804002010B5FFF789FE0848407A0228B3
:100B900002D1FFF78FFF08E00448007A022802D153
:100BA000FFF7D2FE01E0FFF7D7FF10BDB815002018
:100BB00010B5024800F0C6FF10BD0000B8140020B8
:100BC00010B5024800F0BEFF10BD0000D812002092
:100BD00010B5024800F0B6FF10BD00003813002029
:100BE00010B5024800F0AEFF10BD00005814002000
:100BF00010B5024800F0A6FF10BD000098130020B9
:100C000010B5024800F09EFF10BD0000F813002050
:100C10000146087810381823B0FBF3F20848805CCE
:100C2000C865032A05D908686FF30900001D8865A7
:100C300003E008686FF309008865886D704700005D
:100C4000FA670008014600208A6A8B69CBB932B185
:100C5000012A0DD0022A03D0032A10D10EE000BFD2
:100C6000CB6A03F08073B3F1807F00D1012007E0ED
:100C7000CB6AB3F1C07F00D1012001E000E000BFEA
:100C800034E08B69B3F5005F1AD132B1012A07D085
:100C9000022A03D0032A11D10AE000BF01200EE08E
:100CA000CB6A03F08073B3F1807F00D1012006E0AE
:100CB000CB6AB3F1C07F00D1012000E000BF15E096
:100CC00032B1012A05D0022A04D0032A0CD103E054
:100CD00000BF00BF012008E0CB6A03F08073B3F1CE
:100CE000807F00D1012000E000BF00BF704730B519
:100CF0000468246824F4802405682C600468636018
:100D00008468402C04D10468A2600468E16003E0B8
:100D10000468A1600468E26030BD7047734890F8D1
:100D20003C000A2871DA01207049A1F8BA000221BA
:100D30006E48A0F8BC100321A0F8BE100421A0F852
:100D4000C0100521A0F8C2100621A0F8C410072188
:100D5000A0F8C61040F20111A0F8C810491CA0F874
:100D6000CA10491CA0F8CC10491CA0F8CE10491C90
:100D7000A0F8D010491CA0F8D21090F83C0001282F
:100D800006D15A48B0F8C8005849A1F8D400ACE0E0
:100D9000564890F83C00022806D15448B0F8CA00E2
:100DA0005249A1F8D400A0E0504890F83C00032834
:100DB00006D14E48B0F8CC004C49A1F8D40094E0DC
:100DC0004A4890F83C00042806D14848B0F8CE00C4
:100DD0004649A1F8D40088E0444890F83C00052832
:100DE00006D14248B0F8D0004049A1F8D4007CE0D8
:100DF0003E4890F83C00062877D13C48B0F8D20035
:100E00003A49A1F8D40070E0FFE765203749A1F81E
:100E1000BA0066213548A0F8BC106721A0F8BE10C2
:100E20006821A0F8C0106921A0F8C2106A21A0F8BA
:100E3000C4106B21A0F8C61040F26511A0F8C810CC
:100E4000491CA0F8CA10491CA0F8CC10491CA0F8F5
:100E5000CE10491CA0F8D010491CA0F8D21090F870
:100E60003C00652806D12148B0F8C8001F49A1F808
:100E7000D4003AE01D4890F83C00662806D11B4893
:100E8000B0F8CA001949A1F8D4002EE0174890F82C
:100E90003C00672806D11548B0F8CC001349A1F8EA
:100EA000D40022E0114890F83C00682806D10F4891
:100EB000B0F8CE000D49A1F8D40016E00B4890F828
:100EC0003C00692806D10948B0F8D0000749A1F8CC
:100ED000D4000AE0054890F83C006A2805D1034890
:100EE000B0F8D2000149A1F8D4007047485600205C
:100EF00010B5FFF7AFFBFFF7CBFB03F087FE10BD8C
:100F000072B600BFFEE74FF0E0200069C0F300407A
:100F10007047000030B5034613B94FF6FF7030BD7F
:100F200009E013F8014B82EA0400C0B2054D35F820
:100F3000100080EA2222081EA1F10101F1D1104621
:100F4000EDE70000FA62000830B5034605E013F84B
:100F5000010B80EA02040448025D081EA1F10101B0
:100F6000F5D1104630BD0000F961000810B5024609
:100F700092F82030012B01D0022B06D11068406975
:100F8000084314686061002010BD506A40F480205E
:100F900050620120F8E7F0B504460D461E4694F86D
:100FA000207020688368A86800B900E000BF012FA6
:100FB00001D0022F7DD103F0806030B903F00060D2
:100FC00018B903F0805000287ED0C3F301610120DE
:100FD00088403060A86860B9B5F800C0E86840EAA9
:100FE0004C5C206800F5C07000EB0110C0F800C038
:100FF0000FE0D5E901C040EACC00D5F80CC040EACA
:101000000C00D4F800C00CF5C07C0CEB011CCCF833
:101010000000D5F810C0206800F5C07000EB01108A
:10102000C0F804C0287D01280ED1206800F5C070EA
:1010300000EB0110406840F4807C206800F5C0702F
:1010400000EB0110C0F804C0D079000692F806C089
:1010500040EA0C4092F805C040EA0C2092F804C027
:1010600040EA0C00D4F800C00CF5C07C0CEB011C6D
:10107000CCF80C00D078000692F802C040EA0C4090
:1010800092F801C040EA0C2092F800C040EA0C003F
:10109000D4F800C00CF5C07C0CEB011CCCF80800A7
:1010A000206800F5C07000EB0110006840F0010CF2
:1010B00001E00FE008E0206800F5C07000EB0110CF
:1010C000C0F800C00020F0BD606A40F4001060620B
:1010D0000120F8E7606A40F4802060620120F2E7B6
:1010E000F0B504460A46216894F82050012D01D03D
:1010F000022D7ED1424901F50071086840F00100DF
:101100000860086820F47C5008600868566A40EA65
:1011100006200860107D00F01F06012000FA06F38B
:10112000C8699843C861A1F50071D069C8B9D1F800
:101130000C029843C1F80C02908880B2968940EA6C
:10114000064601F51070576940F83760108880B284
:10115000168940EA064601F51070576900EBC70092
:101160004660D069012819D1D1F80C021843C1F8A2
:101170000C02908880B2168840EA064601F510708D
:10118000576940F83760908980B2168940EA064670
:1011900001F51070576900EBC7004660906928B9E7
:1011A000D1F804029843C1F8040204E0D1F8040223
:1011B0001843C1F80402106928B9D1F81402984301
:1011C000C1F8140204E0D1F814021843C1F8140263
:1011D000106A012804D1D1F81C021843C1F81C027E
:1011E000D1F8000220F00100C1F800020020F0BD9B
:1011F000FFE7606A40F4802060620120F7E70000AA
:1012000000640040704770B5044694F82050012DEA
:1012100001D0022D7DD151B92068C06800F00300D3
:1012200080B9606A40F400106062012070BD2068DF
:10123000006900F0030028B9606A40F400106062A1
:101240000120F3E7206800F5D87000EB011000687A
:1012500000F004009060906840B9206800F5D870F4
:1012600000EB01100068400D106007E0206800F5F9
:10127000D87000EB01100068C0085060206800F5CD
:10128000D87000EB0110006800F00200D060206808
:1012900000F5D87000EB0110406800F00F0008283E
:1012A00002D30820106108E0206800F5D87000EB38
:1012B0000110406800F00F001061206800F5D87040
:1012C00000EB0110406800F47F40000A9061206844
:1012D00000F5D87000EB01104068000C50612068E8
:1012E00000F5D87000EB011080681870206800F5D8
:1012F000D87000EB0110806800F47F40000A58703D
:10130000206800F5D87000EB0110806800F47F00C1
:1013100000E03CE0000C9870206800F5D87000EB0D
:1013200001108068000ED870206800F5D87000EBBE
:101330000110C0681871206800F5D87000EB01102A
:10134000C06800F47F40000A5871206800F5D8702A
:1013500000EB0110C06800F47F00000C9871206859
:1013600000F5D87000EB0110C068000ED87131B9DB
:101370002068C06840F020002668F06005E0206822
:10138000006940F020002668306100204EE7606A66
:1013900040F480206062012048E72DE9F05F0446B8
:1013A0000025206846692068D0F804902068876886
:1013B0002068D0F80CA02068D0F810B02068D0F8D1
:1013C000188006F00100002855D007F00100C0B1D8
:1013D00001202168886007F0020018B1204600F063
:1013E00040FB0EE007F0040010B145F4006508E092
:1013F00007F0080010B145F4805502E0204600F0E7
:101400002FFB07F48070C8B14FF4807021688860AA
:1014100007F4007018B1204600F025FB0EE007F439
:10142000806010B145F4005508E007F4006010B189
:1014300045F4804502E0204600F014FB07F48030BC
:10144000C8B14FF480302168886007F4003018B1CB
:10145000204600F00AFB0EE007F4802010B145F4AE
:10146000004508E007F4002010B145F4803502E0A3
:10147000204600F0F9FA06F0080038B10AF0100032
:1014800020B145F4007510202168C86006F0040002
:1014900040B10AF0080028B108202168C860204641
:1014A00000F00EFA06F0020038B12068C06800F0C3
:1014B000030010B1204600F005FA06F0400038B1F4
:1014C0000BF0100020B145F4806510202168086100
:1014D00006F0200040B10BF0080028B10820216878
:1014E0000861204600F08AFA06F0100038B1206842
:1014F000006900F0030010B1204600F080FA06F405
:10150000003040B109F0100028B110202168486077
:10151000204600F075FA06F4803040B109F008006A
:1015200028B1082021684860204600F09FFA06F4A0
:10153000004088B309F0040078B306F4807020B14D
:1015400008F0010008B145F0010506F4007020B173
:1015500008F0020008B145F0020506F4806020B1F1
:1015600008F0040008B145F0040506F40060A0B1DD
:1015700008F0700088B108F07000402817D006DC31
:1015800010280BD020280CD0302819D10CE050287E
:1015900010D0602814D110E01DE019E045F00805D6
:1015A0000FE045F010050CE045F0200509E045F09E
:1015B000400506E045F0800503E045F4807500E055
:1015C00000BF00BF2068806920F07000216888613A
:1015D0000420216848602DB1606A2843606220467B
:1015E000FFF710FEBDE8F09F70B504460CB901206E
:1015F00070BD94F8200010B9204600F0AFF82068C4
:10160000006840F001002168086000F08FFD054689
:101610000DE000F08BFD401B0A2808D9606A40F4F9
:1016200000306062052084F820000120E0E7206897
:10163000406800F001000028EBD02068006820F02E
:1016400002002168086000F071FD05460DE000F021
:101650006DFD401B0A2808D9606A40F400306062C2
:10166000052084F820000120C2E72068406800F0CF
:1016700002000028EBD1207E012806D120680068F6
:1016800040F080002168086005E02068006820F0D4
:10169000800021680860607E012806D1206800680B
:1016A00040F040002168086005E02068006820F0F4
:1016B000400021680860A07E012806D120680068EB
:1016C00040F020002168086005E02068006820F0F4
:1016D000200021680860E07E012806D120680068AB
:1016E00020F010002168086005E02068006840F0E4
:1016F000100021680860207F012806D1206800685A
:1017000040F008002168086005E02068006820F0CB
:10171000080021680860607F012806D12068006801
:1017200040F004002168086005E02068006820F0AF
:10173000040021680860D4E90201084321690843D4
:10174000616908436168491E08432168C861002037
:101750006062012084F82000002049E710B586B0BF
:101760000446142101A8FEF70FFF4F492068884264
:1017700042D14E480068401C4C4908600846006849
:1017800001280FD100BF002000904948006840F0B8
:101790000070474908600846006800F0007000903B
:1017A00000BF00BF00BF0020009041481038006813
:1017B00040F001003E49103908600846006800F01A
:1017C0000100009000BF00BF4FF4C0500190022004
:1017D000029000200390032004900920059001A9A5
:1017E000344800F0A3FB00220521142000F066FD20
:1017F000142000F04FFD55E02F492068884251D158
:1018000000BF002000902A48006840F0806028490E
:1018100008600846006800F08060009000BF00BFCC
:1018200022480068401C21490860084600680128D9
:101830000FD100BF002000901D48006840F00070EC
:101840001B4908600846006800F00070009000BF67
:1018500000BF00BF0020009015481038006840F01D
:1018600002001349103908600846006800F00200C1
:10187000009000BF00BF4FF4405001900220029042
:1018800000200390032004900920059001A90B4833
:1018900000F04CFB00220521402000F00FFD40200D
:1018A00000F0F8FC06B010BD0064004018000020F5
:1018B000403802400000024000680040000402403E
:1018C0007047000010B58AB004463F49206888423E
:1018D00038D101AB03AA00213C48FFF794FC0398E0
:1018E000A0F2012007282BD2DFE800F004090F1432
:1018F0001A1F250001A93648FEF7E8FE21E001A9DC
:101900003348AC30FEF7E2FE1BE001A93148FEF798
:10191000DDFE16E001A92F48AC30FEF7D7FE10E03F
:1019200001A92D48FEF7D2FE0BE001A92A48AC30F0
:10193000FEF7CCFE05E001A92848FEF7C7FE00E04F
:1019400000BF00BF2649206888423AD101AB03AAF4
:1019500000212448FFF757FC40F202220398811A25
:10196000904212D007DC05281FD0062822D0A0F212
:10197000012020BB04E003290DD004291FD10FE072
:1019800001A91948FEF7A2FE1AE001A91648AC30D9
:10199000FEF79CFE14E001A91448FEF797FE0FE045
:1019A00001A91348FEF792FE0AE001A9114803F0CD
:1019B00085FA05E001A9104803F080FA00E000BFB5
:1019C00000BF0AB010BD00000064004020110020DC
:1019D0006C000020C40100202404002034000020FA
:1019E00000680040481100207C050020D40A002037
:1019F000080C00208C080020C009002070477047A8
:101A0000704770B5044694F82000012822D10220C6
:101A100084F820002068006820F001002168086038
:101A200000F084FB05460DE000F080FB401B0A2817
:101A300008D9606A40F400306062052084F8200014
:101A4000012070BD2068406800F001000028EBD143
:101A50006062F6E7606A40F4002060620120F0E70F
:101A6000704770477047704770477047704770B550
:101A70000446A56D00F05AFB064694F8350002288E
:101A800008D08020606500BF002084F8340000BFCB
:101A9000012070BD2068006820F0160021680860F1
:101AA0002068406920F0800021684861206C08B9F6
:101AB000A06C28B12068006820F008002168086048
:101AC0002068006820F001002168086010E000F044
:101AD0002DFB801B05280BD920206065032084F88E
:101AE000350000BF002084F8340000BF0320D0E799
:101AF0002068006800F001000028E8D194F85C102C
:101B00003F208840A860012084F8350000BF0020F5
:101B100084F8340000BF00BFBBE7014691F83500F0
:101B2000022803D08020486501207047052081F8F5
:101B300035000868006820F001000A681060002085
:101B4000F3E70000F8B50446002000908C480068D8
:101B50004FF41651B0FBF1F7A56D2E6894F85C10A8
:101B600008208840304098B12068006800F00400E8
:101B700070B12068006820F004002168086094F8C3
:101B80005C1008208840A860606D40F0010060652E
:101B900094F85C1001208840304068B120684069AA
:101BA00000F0800040B194F85C1001208840A860EB
:101BB000606D40F00200606594F85C10042088407D
:101BC000304068B12068006800F0020040B194F82D
:101BD0005C1004208840A860606D40F004006065DF
:101BE00094F85C1010208840304078B3206800687A
:101BF00000F0080050B394F85C1010208840A860F2
:101C00002068006800F4802080B12068006800F43B
:101C1000002028B9206CC8B12046216C884715E007
:101C2000A06C98B12046A16C88470FE0206800683E
:101C300000F4807028B92068006820F0080021684E
:101C40000860206C10B12046216C884794F85C1025
:101C5000202088403040002865D02068006800F0CF
:101C6000100000285FD094F85C1020208840A86005
:101C700094F83500052828D12068006820F0160067
:101C8000216808602068406920F080002168486170
:101C9000206C08B9A06C28B12068006820F008000A
:101CA0002168086094F85C103F208840A8600120FB
:101CB00084F8350000BF002084F8340000BF206D98
:101CC00010B12046216D8847F8BD2068006800F4F7
:101CD000802080B12068006800F4002028B9606C82
:101CE00010B12046616C88471DE0E06BD8B12046FA
:101CF000E16B884717E02068006800F4807068B9DD
:101D00002068006820F0100021680860012084F835
:101D1000350000BF002084F8340000BFE06B10B134
:101D20002046E16B8847606D38B3606D00F00100BC
:101D3000F0B1052084F835002068006820F001002B
:101D40002168086000BF0098401C0090B84200D98C
:101D500005E02068006800F001000028F3D100BF12
:101D6000012084F8350000BF002084F8340000BF53
:101D7000E06C10B12046E16C884700BFA4E700008A
:101D8000600E00202DE9F0410446002500F0CEF958
:101D9000074614B90120BDE8F081606A00B100BFB8
:101DA000022084F8350000BF002084F8340000BF12
:101DB0002068006820F00100216808600AE000F057
:101DC000B5F9C01B052805D920206065032084F8DB
:101DD0003500E0E72068006800F001000028EED13F
:101DE0002068056821480540D4E901010843E168FD
:101DF00008432169084361690843A1690843E1690F
:101E00000843216A08430543606A042803D1D4E9E2
:101E10000B0108430543206805602068456925F0EB
:101E20000705606A0543606A04280DD1A06A05436E
:101E3000E06A48B12046FEF705FF28B14020606502
:101E4000012084F83500A6E7206845612046FEF7AA
:101E5000DFFE064694F85C103F208840B06000200A
:101E60006065012084F83500002094E73F8010F081
:101E70002DE9F04704460D4616461F464FF0000870
:101E8000D4F8589000BF94F83400012802D1022001
:101E9000BDE8F087012084F8340000BF94F83500D5
:101EA000012825D1022084F83500002060653B46DA
:101EB000324629462046FEF71AFF94F85C103F2070
:101EC0008840C9F808002068006840F016002168C2
:101ED0000860206C28B12068006840F00800216884
:101EE00008602068006840F001002168086006E092
:101EF00000BF002084F8340000BF4FF002084046C5
:101F0000C6E7000070B5044600F010F90646254605
:101F1000681C10B104480078054400BF00F006F9C1
:101F2000801BA842FAD370BD5C0E0020F8B50246B3
:101F30000B460025002400200021D6E0012606FAE9
:101F400001F51E6806EA0504AC4274D11E7906F05C
:101F50000306012E04D01E7906F00306022E13D1CB
:101F600090684F000326BE40B0434F00DE68BE407D
:101F700030439060506801268E40B0431E79C6F30E
:101F800000168E40304350601E7906F00306032E83
:101F900009D0D0684F000326BE40B0434F009E6872
:101FA000BE403043D0601E7906F00306022E13D1E6
:101FB000CF0802F1200656F827004E07F70E0F262D
:101FC000BE40B0434F07FF0E1E69BE403043CF08EE
:101FD00002F1200646F8270010684F000326BE4095
:101FE000B0431E7906F003064F00BE403043106038
:101FF0005E6806F44036002E76D000BF00260096BC
:102000003C4E366846F480463A4F3E603E4636685F
:1020100006F48046009600BF00BF374E8F0856F882
:1020200027008E07370F0F26BE40B043334EB24213
:1020300002D1002624E057E0314EB24201D1012600
:102040001EE0304EB24201D1022619E02E4EB242BD
:1020500001D1032614E02D4EB24201D104260FE037
:102060002B4EB24201D105260AE02A4EB24201D1DE
:10207000062605E0284EB24201D1072600E00826D8
:102080008F073F0FBE4030431B4E8F0846F8270096
:10209000224E3068A0435E6806F4801606B12043E5
:1020A0001E4E3060361D3068A0435E6806F4001690
:1020B00006B12043194E361D3060184E361F306869
:1020C000A0435E6806F4003606B12043134E361F67
:1020D0003060361F3068A0435E6806F4803606B173
:1020E00020430E4E083E3060491C1029FFF426AFF5
:1020F000F8BD0000443802400838014000000240AA
:102100000004024000080240000C0240001002409F
:102110000014024000180240001C0240083C01402C
:102120000AB1816101E00B048361704701480068D6
:1021300070470000540E00200348006803490978E6
:102140000844014908607047540E00205C0E0020CE
:1021500010B50D48006840F400700B49086008464F
:10216000006840F4806008600846006840F48070B1
:102170000860032000F0E0F80F2000F007F800F0FE
:102180005FF8002010BD0000003C02402DE9F04146
:1021900088B004460027B84600BF002001902348BD
:1021A000006840F48070214908600846006800F427
:1021B0008070019000BF00BF02A903A800F092F94F
:1021C000069F1FB900F0B6F9054602E000F0B2F92B
:1021D00045001748B5FBF0F0A0F101081548164975
:1021E000086040F2E7311448C160C0F80480002163
:1021F00001618160816100F065FC064696B90E4878
:1022000000F094FC06466EB92D2000F043F8102C27
:1022100007D2002221462D2000F050F80748046024
:1022200000E00126304608B0BDE8F08140380240A9
:1022300040420F000020004018150020580E0020DA
:1022400008B500BF002000901148006840F48040AD
:102250000F4908600846006800F48040009000BF05
:1022600000BF00BF00200090081F006840F08050B1
:10227000091F08600846006800F08050009000BF09
:1022800000BF00220F21901E00F018F808BD0000CA
:10229000443802400146084600280DDB00BF00BF5D
:1022A00000F01F0301229A4043099B0003F1E02341
:1022B000C3F8002100BF00BF00BF70472DE9F05FE9
:1022C00080460D461646002702F022FD0746394695
:1022D0002A46334601F00700C0F1070ABAF1040F9D
:1022E00002D94FF0040A01E0C0F1070AD14600F11B
:1022F000040ABAF1070F02D24FF0000A01E0A0F180
:10230000030AD4464FF0010A0AFA09FAAAF1010AAF
:102310000AEA020A0AFA0CFA4FF0010B0BFA0CFB5C
:10232000ABF1010B0BEA030B4AEA0B0421464046D2
:1023300002F0F6FCBDE8F09F00BF00F00702064B7C
:1023400019684FF6FF031940044B0B4343EA02217F
:10235000014B196000BF70470CED00E00000FA056A
:1023600070B504460D460CB9012070BD5848006890
:1023700000F00700A84209D255490D7008460068D0
:1023800000F00700A84201D00120EEE7207800F01D
:10239000020002281DD1207800F00400042805D195
:1023A0004C48006840F4E0504A490860207800F04A
:1023B0000800082805D14748006840F460404549B6
:1023C00008604448006820F0F000A16808434149D3
:1023D0000860207800F00100A8B36068012807D1E8
:1023E0003C4808380068C0F34040B8B90120BCE759
:1023F0006068022802D06068032807D13548083891
:102400000068C0F3406048B90120AEE731480838A1
:102410000068C0F3400008B90120A6E72D48006815
:1024200020F00300616808432A490860FFF77EFE38
:10243000064609E0FFF77AFE801B41F288318842A8
:1024400002D9032091E707E02248006800F00C0061
:102450006168B0EB810FEDD11D48006800F0070006
:10246000A84209D91A490D700846006800F0070013
:10247000A84201D0012078E7207800F00400042869
:1024800007D11448006820F4E050E168084311497E
:102490000860207800F00800082808D10D4800687E
:1024A00020F46040216940EAC1000A49086000F058
:1024B00061F808490968C1F30311074A515CC84033
:1024C0000649086006480068FFF760FE00204CE7F8
:1024D000003C02400838024002680008600E0020FC
:1024E000580E00200F2202600D4A126802F003020B
:1024F00042600B4A126802F0F0028260084A1268D9
:1025000002F4E052C260064A126802F46042D20845
:102510000261044A126802F007020A607047000074
:1025200008380240003C0240014800687047000043
:10253000600E002000B5FFF7F7FF04490968C1F3FA
:102540008221034A515CC84000BD000008380240A7
:102550001268000800B5FFF7E7FF04490968C1F3F6
:102560004231034A515CC84000BD000008380240B7
:10257000126800082DE9F047002400250026A14636
:102580002548006800F00C0020B1042805D0082878
:102590003AD105E0DFF8849039E0DFF8849036E046
:1025A0001D48001F006800F03F041B48001F006822
:1025B00000F4800078B11A481749091F0968C1F36F
:1025C0008811A0FB01700146224600233846FDF722
:1025D000CBFE05460EE011480F49091F0968C1F3FB
:1025E0008811A0FB01700146224600233846FDF702
:1025F000BBFE05460848001F0068C0F30140401CB0
:102600004600B5FBF6F902E0DFF8109000BF00BF0E
:102610004846BDE8F0870000083802400024F40076
:1026200040787D01F8B504460CB90120F8BD20784A
:1026300000F00100002874D0F948006800F00C0098
:1026400004280DD0F648006800F00C00082813D1CB
:10265000F348001F006800F48000B0F5800F0BD134
:10266000EF4808380068C0F34040002859D060683F
:10267000002856D10120D9E700BF6068B0F5803F3F
:1026800008D1E7480838006840F48030E449083948
:1026900008601EE06068B0F5A02F0DD1E048083852
:1026A000006840F48020DE49083908600846006868
:1026B00040F4803008600CE0D9480838006820F405
:1026C0008030D749083908600846006820F4802027
:1026D000086000BF606890B1FFF728FD054606E07E
:1026E000FFF724FD401B642801D903209EE7CC4856
:1026F00008380068C0F340400028F1D011E0FFF72F
:1027000015FD054606E0FFF711FD401B642801D9C1
:1027100003208BE7C24808380068C0F34040002817
:10272000F1D1207800F0020002285FD1BC48006897
:1027300000F00C0058B1BA48006800F00C000828FE
:102740001CD1B748001F006800F48000B0B9B4483D
:1027500008380068C0F3400020B1E068012801D0CB
:10276000012063E7AE480838006820F0F8002169CE
:1027700040EAC100AA490839086037E0E06800B3C0
:102780000120A8490860FFF7D1FC054606E0FFF7E5
:10279000CDFC401B022801D9032047E7A048083898
:1027A0000068C0F340000028F1D09D480838006858
:1027B00020F0F800216940EAC10099490839086011
:1027C00014E0002097490860FFF7B0FC054606E0DA
:1027D000FFF7ACFC401B022801D9032026E79048F4
:1027E00008380068C0F340000028F1D1207800F0DC
:1027F000080008282CD16069A8B101208A49086026
:10280000FFF794FC054606E0FFF790FC401B02280A
:1028100001D903200AE782486C300068C0F3400009
:102820000028F1D014E000207F490860FFF77EFC0B
:10283000054606E0FFF77AFC401B022801D9032079
:10284000F4E677486C300068C0F340000028F1D10E
:10285000207800F00400042870D100277048383038
:10286000006800F0805090B900BF002000906C48D4
:102870003830006840F080506949383108600846B7
:10288000006800F08050009000BF00BF012767483B
:10289000006800F48070B0B96448006840F480704B
:1028A00062490860FFF742FC054606E0FFF73EFC80
:1028B000401B022801D90320B8E65C48006800F4F8
:1028C00080700028F2D000BFA068012808D15448C9
:1028D0006830006840F001005149683108601DE02F
:1028E000A06805280DD14E486830006840F004000B
:1028F0004B49683108600846006840F001000860F4
:102900000CE047486830006820F001004449683115
:1029100008600846006820F00400086000BFA06856
:10292000A8B1FFF703FC054609E0FFF7FFFB401BDA
:1029300041F28831884202D9032077E626E0384800
:1029400068300068C0F340000028EED013E0FFF7C5
:10295000EDFB054608E0FFF7E9FB401B41F288313B
:10296000884201D9032061E62D4868300068C0F331
:1029700040000028EFD1012F07D1294838300068E6
:1029800020F0805026493831086000BFA069002837
:1029900045D02348006800F00C0008285DD0A069ED
:1029A000022845D100201F490866FFF7BFFB0546F6
:1029B00006E0FFF7BBFB401B022801D9032035E6E8
:1029C000174808380068C0F340600028F1D1D4E906
:1029D00007010843616A40EA81110122A06AC2EB43
:1029E000500041EA00412C20005D41EA00600C49A2
:1029F000091F086001200B490866FFF797FB054691
:102A000006E0FFF793FB401B022801D903200DE6E7
:102A1000034808380068C0F340600028F1D049E05E
:102A20000838024000004742800E474200700040D4
:102A3000002021490866FFF779FB054606E0FFF70D
:102A400075FB401B022801D90320EFE51B480068F5
:102A5000C0F340600028F2D12CE0A069012800D129
:102A6000E4E51648001D0668A069012820D006F498
:102A70008001E06981421BD106F03F01206A81425A
:102A800016D147F6C0703040616AB0EB811F0FD19C
:102A900006F440310122A06AC2EB5000B1EB004FB6
:102AA00006D106F070612C20005DB1EB006F01D003
:102AB0000120BBE50020B9E5000047420038024094
:102AC0007047704710B504460CB9012010BD94F84A
:102AD0003D0028B9002084F83C00204600F025F88D
:102AE000022084F83D00211D206801F09FFB012099
:102AF00084F8460000BF84F83E0001213F200155C4
:102B0000402001554120015500BF00BF012084F83D
:102B1000420043200155442001554520015500BF86
:102B2000012084F83D000020D0E77047014691F86D
:102B30003D00012801D001207047022081F83D00AE
:102B40000868C06840F001000B68D8601A4B08683C
:102B500098421BD00868B0F1804F17D0174B086817
:102B6000984213D0164B086898420FD0154B08684E
:102B700098420BD0144B0868984207D0134B086852
:102B8000984203D0124B086898420CD108688068BC
:102B900000F00702062A0CD00868006840F0010027
:102BA0000B68186005E00868006840F001000B68D9
:102BB00018600020C0E70000000001400004004051
:102BC00000080040000C00400004014000400140AB
:102BD00000180040704770B504462068C56820683A
:102BE000066906F00200022819D105F00200022849
:102BF00015D1401F21680861012020772068806975
:102C000000F0030018B12046FFF7E4FF05E020467E
:102C100000F097F8204600F095F80020207706F0A5
:102C20000400042819D105F00400042815D1C0437C
:102C300021680861022020772068806900F44070D4
:102C400018B12046FFF7C6FF05E0204600F079F8EE
:102C5000204600F077F80020207706F008000828CA
:102C600019D105F00800082815D1C0432168086172
:102C7000042020772068C06900F0030018B12046C6
:102C8000FFF7A8FF05E0204600F05BF8204600F0C3
:102C900059F80020207706F01000102819D105F00F
:102CA0001000102815D1C043216808610820207742
:102CB0002068C06900F4407018B12046FFF78AFF11
:102CC00005E0204600F03DF8204600F03BF80020EB
:102CD000207706F0010048B105F0010030B16FF037
:102CE000010021680861204600F02EF806F08000FF
:102CF000802809D105F08000802805D1C0432168D3
:102D000008612046FFF7DCFE06F04000402809D1AC
:102D100005F04000402805D1C043216808612046E5
:102D200000F01EF806F02000202809D105F0200050
:102D3000202805D1C043216808612046FFF7C1FE65
:102D400070BD70477047000010B504460349206805
:102D5000884201D1FFF7F0F910BD000000200040CB
:102D60007047704770B50446002520684069C0F37D
:102D7000C01594F84100212817D1B5B100BF00BF9C
:102D80002168143151E8001F21F0800021681431BE
:102D900041E80002002AF3D100BFA06B10B1A06B84
:102DA000FEF765FE204601F0A3FB20684069C0F3F2
:102DB000801594F84200222817D1B5B100BF00BF9A
:102DC0002168143151E8001F21F0400021681431BE
:102DD00041E80002002AF3D100BFE06B10B1E06BC4
:102DE000FEF745FE204601F03DFB002070BD704718
:102DF0002DE9F84F0446206805682068C6682068F9
:102E000047694FF00009CA4605F00F09B9F1000FF4
:102E10000AD105F0200038B106F0200020B120468C
:102E200001F0A6FCBDE8F88FB9F1000F7CD007F0E7
:102E3000010018B906F49070002875D005F0010063
:102E400030B106F4807018B1606C40F0010060642D
:102E500005F0040030B107F0010018B1606C40F0DB
:102E60000200606405F0020030B107F0010018B103
:102E7000606C40F00400606405F0080048B106F0A2
:102E8000200010B907F0010018B1606C40F0080094
:102E90006064606C002846D005F0200028B106F080
:102EA000200010B1204601F063FC20684069C0F3A7
:102EB000801A606C00F0080010B9BAF1000F2DD034
:102EC000204601F0CFFA2068406900F04000402819
:102ED00020D100BF00BF2168143151E8001F21F04C
:102EE00040002168143141E80002002AF3D100BFFC
:102EF000E06B50B17748E16B0865E06BFEF70DFEC3
:102F000088B1E06B016D88470DE02046FFF76FFF49
:102F100009E009E02046FFF76AFF04E02046FFF7DA
:102F200066FF002060647DE7206B012878D105F002
:102F30001000002874D006F010000028FAD000BF5E
:102F40000020009020680068009020684068009091
:102F500000BF00BF2068406900F04000402860D1F9
:102F6000E06B006840681FFA80F8B8F1000F56D097
:102F7000A08D404553DDA4F82E80E06BC069B0F50C
:102F8000807F43D000BF00BF21680C3151E8001F93
:102F900021F4807021680C3141E80002002AF3D14D
:102FA00000BF00BF00BF2168143151E8001F21F0AD
:102FB00001002168143141E80002002AF3D100BF6A
:102FC00000BF00BF2168143151E8001F21F040000C
:102FD0002168143141E80002002AF3D100BF20200B
:102FE00084F842000020206300BF00BF21680C313C
:102FF00051E8001F21F0100021680C3141E8000267
:10300000002AF3D100BFE06BFEF731FD02206063C0
:10301000A08DE28D801A81B22046FFF7A2FE01E763
:1030200042E0A08DE18D401A1FFA80F8E08DD0B308
:10303000B8F1000F37D000BF00BF21680C3151E854
:10304000001F21F4907021680C3141E80002002A31
:10305000F3D100BF00BF00BF2168143151E8001F49
:1030600021F001002168143141E80002002AF3D167
:1030700000BF202084F842000020206300BF00BF72
:1030800021680C3151E8001F21F0100021680C313B
:1030900041E80002002AF3D100BF022060634146EC
:1030A0002046FFF75EFEBDE605F0800030B106F079
:1030B000800018B1204601F053FDB3E605F0400052
:1030C00030B106F0400018B1204601F001FAA9E63F
:1030D00000BFA7E62943000810B504460CB901203B
:1030E00010BDA06900B100E000BF94F8410028B90C
:1030F000002084F84000204600F02AF8242084F8BC
:1031000041002068C06820F400502168C860204653
:1031100001F0ACFB2068006920F490402168086150
:103120002068406920F02A00216848612068C06852
:1031300040F400502168C86000206064202084F8BA
:10314000410084F842000020606300BFC8E700002F
:1031500010B586B00446142101A8FDF715FAFE4902
:103160002068884274D100BF00200090FB480068AE
:1031700040F40020F94908600846006800F4002087
:10318000009000BF00BF00BF00200090F34810383F
:10319000006840F00100F1491039086008460068F5
:1031A00000F00100009000BF00BF0320019002204A
:1031B000029000200390032004900820059001A9AC
:1031C000E748FEF7B3FEE748E74908604005486076
:1031D0000021E5488160C1604FF4806101610021F8
:1031E00041618161C16101624162FEF7CBFD08B1BD
:1031F000FDF786FE00BFDC48E063846300BFD9486A
:103200003030DA4908604FF0006048604021D7480C
:1032100081600021C1604FF4806101610021416142
:103220008161C16101624162FEF7ACFD08B1FDF749
:1032300067FE00BFCD48A063846300BF0022052164
:103240003420FFF73BF83420FFF724F882E1FFE752
:10325000C749206888427BD100BF00200090BF484A
:10326000001D006840F01000BC49091D08600846B8
:10327000006800F01000009000BF00BF00BF0020F9
:103280000090B6481038006840F00100B34910398A
:1032900008600846006800F00100009000BF00BF11
:1032A0004FF4C060019002200290002003900320A0
:1032B00004900720059001A9A948FEF737FEAD4804
:1032C000AD4908604FF0006048600021AA48816065
:1032D000C1604FF4806101610021416181614FF45F
:1032E0008071C161002101624162FEF74BFD08B1AE
:1032F000FDF706FE00BFA048E063846300BF9D4861
:1033000078309E4908604FF00060486040219B483B
:1033100081600021C1604FF4806101610021416141
:103320008161C16101624162FEF72CFD08B1FDF7C8
:10333000E7FD00BF9148A063846300BF0022052120
:103340002520FEF7BBFF2520FEF7A4FF02E1FFE7E3
:103350008B492068884260D100BF002000907F48E0
:10336000006840F400307D4908600846006800F4B9
:103370000030009000BF00BF00BF002000907748E1
:103380001038006840F001007449103908600846A0
:10339000006800F00100009000BF00BF0C20019009
:1033A0000220029000200390032004900720059043
:1033B00001A96B48FEF7BAFD6A48483071490860B8
:1033C0004FF00060486000216E488160C1604FF49A
:1033D000806101610021416181614FF48071C161AF
:1033E0004FF44031016204214162012181620021D8
:1033F000C1620163FEF7C6FC08B1FDF781FD00BFA5
:103400006048E063846300BF002205212620FEF7A8
:1034100055FF2620FEF73EFF9CE05B49206888426E
:103420005AD100BF002000904C48006840F4802032
:103430004A4908600846006800F48020009000BFF8
:1034400000BF00BF0020009044481038006840F0E2
:1034500002004249103908600846006800F0020086
:10346000009000BF00BF4FF4406001900220029026
:1034700000200390032004900720059001A94348F1
:10348000FEF754FD37481838414908604FF0006096
:10349000486000213E488160C1604FF48061016155
:1034A0000021416181614FF48071C161002101629D
:1034B0004162FEF767FC08B1FDF722FD00BF34480A
:1034C000E063846300BF002205212720FEF7F6FE9B
:1034D0002720FEF7DFFE3DE02E492068884239D1E3
:1034E00000BF002000901D48001D006840F0200033
:1034F0001A49091D08600846006800F02000009085
:1035000000BF00BF00BF00200090144810380068C2
:1035100040F004001149103908600846006800F0C6
:103520000400009000BF00BFC02001900220029064
:1035300000200390032004900820059001A916485C
:10354000FEF7F4FC002205214720FEF7B7FE4720D6
:10355000FEF7A0FE06B010BD004C0040403802400F
:103560000000024040600240D812002038130020C2
:10357000001001404064024098130020F81300201E
:10358000004400405814002000480040000402405D
:10359000B8140020001401400008024070B5044631
:1035A0000D46164694F8420020280BD105B10EB9FD
:1035B000012070BD0020206332462946204601F0DC
:1035C0006BFAF6E70220F4E770477047704700BFD8
:1035D000FEE700000020324908703248007A0128D6
:1035E00007D03048007A022803D02E48007A0328FA
:1035F0000BD12C48407A01280BD02A48407A022867
:1036000007D02848407A032803D0012024490870B5
:1036100042E02448B0F90000002803DD2148B0F959
:10362000000003E01F48B0F900004042B0F5257FDC
:103630002FDC1C48B0F90200002803DD1948B0F95E
:10364000020003E01748B0F902004042B0F5257FC0
:103650001FDC1448B0F90400002803DD1148B0F95C
:10366000040003E00F48B0F904004042B0F5257FA4
:103670000FDC0C48B0F90600002803DD0948B0F95A
:10368000060003E00748B0F906004042B0F5257F88
:1036900002DD0120024908700148007870470000EF
:1036A0003D000020B815002010B500200749087023
:1036B00001F0BEFC0021064B0CCB801A994102D3CD
:1036C0000120024908700148007810BD3E0000202A
:1036D0005000002010B50F480F49086003204860D3
:1036E00000210D488160C1604FF4102101614FF449
:1036F0000011416100210176012141768176C17678
:10370000002101774177FDF76FFF08B1FDF7F8FB66
:1037100010BD0000006400402011002010B50F48CB
:103720000F4908600320486000210D488160C16096
:103730004FF4102101614FF4001141610021017625
:10374000012141768176C176002101774177FDF72D
:103750004BFF08B1FDF7D4FB10BD0000006800402E
:103760004811002008B500BF0020009026480068DE
:1037700040F40010244908600846006800F4001076
:10378000009000BF00BF00BF002000900846006806
:1037900040F4800008600846006800F48000009053
:1037A00000BF00BF002205210C20FEF787FD0C2082
:1037B000FEF770FD002205210D20FEF77FFD0D2094
:1037C000FEF768FD002205210F20FEF777FD0F2090
:1037D000FEF760FD002205211020FEF76FFD10208E
:1037E000FEF758FD002205213A20FEF767FD3A203A
:1037F000FEF750FD002205214620FEF75FFD462022
:10380000FEF748FD08BD00003038024000B5ABB0FF
:103810001C22244924A8FCF763FE002124A801F0FF
:103820001CFC214908601C221E491C311DA8FCF704
:1038300057FE00211DA801F010FC1C4908601C2245
:103840001849383116A8FCF74BFE002116A801F0E4
:1038500004FC174908601C22124954310FA8FCF7D8
:103860003FFE00210FA801F0F8FB124908601C225E
:103870000C49703108A8FCF733FE002108A801F0BC
:10388000ECFB0D4908601C2206498C3101A8FCF7AD
:1038900027FE002101A801F0E0FB084908602BB0D9
:1038A00000BD00005061000800000020040000205E
:1038B000080000200C000020100000201400002050
:1038C00000B587B0142102A8FCF75EFE00BF0020FF
:1038D00001902648006840F08000244908600846AE
:1038E000006800F08000019000BF00BF00BF002012
:1038F00001900846006840F0010008600846006832
:1039000000F00100019000BF00BF00BF0020019047
:103910000846006840F0020008600846006800F0B1
:103920000200019000BF00BF00BF002001900846C8
:10393000006840F0040008600846006800F00400D9
:10394000019000BF00BF002260210948FEF7E8FB9C
:10395000602002900120039000200490059002A9AD
:103960000348FEF7E3FA07B000BD0000303802401C
:103970000004024010B50B480B4908604FF4E130D9
:103980004860002108488160C16001610C214161EB
:1039900000218161C161FFF79FFB08B1FDF7B0FA1B
:1039A00010BD0000004C00407011002010B50B4805
:1039B0000B4908604FF4E1304860002108488160FD
:1039C000C16001610C21416100218161C161FFF78A
:1039D00083FB08B1FDF794FA10BD00000010014010
:1039E000B811002010B50C480C4908600C4848601C
:1039F0004FF48051094881600021C1604FF480611B
:103A000001610C21416100218161C161FFF764FB0B
:103A100008B1FDF775FA10BD004400400012002007
:103A2000A086010010B50B480B4908604FF4E13047
:103A30004860002108488160C16001610C2141613A
:103A400000218161C161FFF747FB08B1FDF758FA1A
:103A500010BD0000004800404812002010B50B487F
:103A60000B4908604FF4E13048600021084881604C
:103A7000C16001610C21416100218161C161FFF7D9
:103A80002BFB08B1FDF73CFA10BD0000001401400B
:103A90009012002000B500200849887001F1240030
:103AA00000F010F80548D03000F00CF8044800F0A1
:103AB00009F80348AC3000F005F800BD68000020AC
:103AC000E40100209FED0C0A10EE101A01629FED38
:103AD0000B0A10EE101AC1639FED070A10EE101AC0
:103AE00001649FED060A10EE101A8163B1EE040A1C
:103AF00010EE101A416370470050434700401C46C7
:103B000000BFFEE700B5FFF7C5FF00BD00BFFEE741
:103B100000B5B0EE402AF0EE602A12EE101AC16035
:103B200012EE901A016132EE620A10EE101A416133
:103B3000416B01EE901AF1EE611AB0EE611A00EEDF
:103B4000901A416900EE101A01F0FEF810EE101AFA
:103B50004161C16900EE101A416900EE901A30EE21
:103B6000200A10EE101AC161C16900EE101A016A34
:103B700000EE901AB4EEE00AF1EE10FA02DD016AEE
:103B8000C16114E0C16900EE101A016A00EE901ADA
:103B9000F1EE600AB4EEE00AF1EE10FA07D2016A23
:103BA00000EE101AB1EE400A10EE101AC161016861
:103BB00000EE101A416900EE901A20EE200A10EE75
:103BC000101A4162416800EE101AC16900EE901AA5
:103BD00020EE200A10EE101A8162416900EE101AE0
:103BE000816900EE901A70EE600A816800EE101A8A
:103BF00020EE800A10EE101AC162816A00EE101ADF
:103C0000C16B00EE901AB4EEE00AF1EE10FA02DD9C
:103C1000C16B816214E0816A00EE101AC16B00EE84
:103C2000901AF1EE600AB4EEE00AF1EE10FA07D253
:103C3000C16B00EE101AB1EE400A10EE101A81624C
:103C4000416A00EE101A816A00EE901A70EE200AA6
:103C5000C16A00EE101A30EE800A10EE101A0163ED
:103C600041698161016B00EE101A816B00EE901AC0
:103C7000B4EEE00AF1EE10FA02DD816B016314E0AC
:103C8000016B00EE101A816B00EE901AF1EE600AE3
:103C9000B4EEE00AF1EE10FA07D2816B00EE101AD2
:103CA000B1EE400A10EE101A0163016B00EE101A1B
:103CB00000BD00000A48007A012802D1022009490B
:103CC000C8700748007A032802D100200549C8704F
:103CD0000348007A022802D101200249C8707047C7
:103CE000B81500204800002000B102B970470170EB
:103CF00092ED001A80ED011A92ED011A80ED021A80
:103D000092ED021A80ED031A80ED040AC0ED050A57
:103D10009FED0C1A80ED0E1A80ED0D1A80ED0C1A35
:103D20009FED081A80ED081A80ED0B1A80ED0A1A33
:103D300080ED091A80ED111A80ED101A80ED0F1A2E
:103D400000BFD3E7000000009FED0C0A80ED470A9A
:103D50009FED0B0A80ED480A9FED080A80ED490AA5
:103D60009FED060A80ED4A0A9FED060A80ED4B0A98
:103D70009FED020A80ED4C0A704700000000000031
:103D8000ACC527376F12833B10B501200849087076
:103D9000FFF720FC10B1002005490870FFF784FCF4
:103DA00010B10220024908700148007810BD0000DF
:103DB0003C00002010B5234B1B685B6943F04003B7
:103DC000204C246863611F4B1B68DB6843F01003C1
:103DD0001C4C2468E3601C4B1B681B6823F0010328
:103DE000194C2468236007E0174B1B681B6823F0FD
:103DF0000103154C24682360134B1B681B6803F0F8
:103E00000103002BF0D1114B0F4C2468A3600E4B23
:103E10001B68D8600C4B1B6819610B4B1B685A6000
:103E2000094B1B681B6843F48023074C24682360FC
:103E3000054B1B681B6843F00103034C2468236097
:103E400010BD00000012002058140020044400405F
:103E500010B5FFF799FF0149087010BD4800002018
:103E60009FED0C0A80ED470A9FED0B0A80ED480A92
:103E70009FED080A80ED490A9FED060A80ED4A0A87
:103E80009FED060A80ED4B0A9FED020A80ED4C0A79
:103E900070470000000000000AD7233C6F12833BEC
:103EA00070B50446002675482168016021790171CA
:103EB0002078A52872D10521204600F0FFFE0128B8
:103EC0006DD1607800F109052946204600F0D6FE44
:103ED000002864D06079A17940EA012640F20321EC
:103EE000701A8E4272D019DCB6F5817F4AD00ADC96
:103EF000012E28D0022E33D0032E35D0A6F2011089
:103F000000282CD138E0B6F5827F41D0A6F205100A
:103F100088B3FC2849D0FD28F3D14FE0052879D09B
:103F200008DC012859D002285CD003285FD004287F
:103F3000E7D161E0062876D0FF287AD0A0F2011000
:103F400000280CD17CE04D48401D54F8071F01604B
:103F50006168416021890181A17AE41F81727BE05F
:103F60004648E179017477E02022E11D4348113091
:103F7000FCF771FA70E013E04048D4F80710C0F87D
:103F8000311069E03D48D4F80710C0F8351063E0FF
:103F90003A48B4F80710A0F839105DE06DE05CE035
:103FA0003648E17980F83B1056E0FCF7B7FE1B225B
:103FB000E11D32483C30FCF74EFA4DE01022E11D85
:103FC0002E485730FCF747FA46E0FFE71022E11D84
:103FD0002A486730FCF73FFA3EE02848E17980F84C
:103FE000771039E02548E17980F87C1034E02348E7
:103FF000E17980F87E102FE020487F30D4F8071058
:104000000160B4F80B108180617B817124E001E0D4
:1040100009E00EE019488630D4F807100160B4F8C2
:104020000B10818018E01548D4F80710C0F88C10E8
:1040300012E01E22E11D11489030FCF70CFA0BE053
:104040000E48363054F8071F81676168C167A16860
:10405000C0F88010E41F00BF00BF0848B0F801108E
:10406000E01D08448078A52807D10449B1F8012053
:10407000E11D1144881CFFF713FF70BD4856002056
:1040800000B524220249A1F12400FFF793FE00BDF0
:10409000BA160020F0EE401AB0EE602AF7EE002AC1
:1040A000F0EE620A61EEA02A42EE202A41EE202ABA
:1040B000B0EE620A704700BF012000F0BDFFFBE7D1
:1040C00000BF012000F0B8FFFBE7000010B500BF03
:1040D000502080F31188BFF34F8FBFF36F8F00BF65
:1040E00001F00AFF18B14FF080500449086000BF8A
:1040F000002080F3118800BF10BD000004ED00E037
:1041000000B593B0302107A8FCF73EFA142102A8AD
:10411000FCF73AFA00BF002001902448006840F004
:104120008050224908600846006800F080500190E5
:1041300000BF00BF00BF002001901D48006840F490
:1041400080401B4908600846006800F480400190E8
:1041500000BF00BF012007900004089002200D90CE
:1041600041050E9119210F914FF4A8711091022170
:1041700011910421129107A8FEF754FA08B1FCF737
:10418000BFFE0F20029002200390002004904FF405
:10419000A05005904FF480500690052102A8FEF72C
:1041A000DFF808B1FCF7ACFE13B000BD40380240A8
:1041B000007000400348006840F470000149086046
:1041C0007047000088ED00E00F48007810B10E48FD
:1041D000407810B900200C4988700B4800780128FD
:1041E00005D109484078012801D10749887006485F
:1041F0000078022803D004484078022802D1022027
:1042000001498870704700004800002010B5FFF792
:10421000DBFFFFF71DFEFFF74DFD10BD10B5024897
:10422000FEF7D9FC10BD00001815002010B502687B
:104230002D4B98420ED0B0F1804F0BD02B4B9842B3
:1042400008D02B4B984205D02A4B984202D02A4BDB
:10425000984203D122F070024B681A43224B9842D5
:1042600020D0B0F1804F1DD0204B98421AD0204B67
:10427000984217D01F4B984214D01F4B984211D030
:104280001E4B98420ED01E4B98420BD01D4B9842AD
:1042900008D01D4B984205D01C4B984202D01C4BB5
:1042A000984203D122F44072CB681A4322F0800373
:1042B0004C6943EA040202608B68C3620B68836244
:1042C000094B984202D00C4B984201D10B69036311
:1042D00001234361036903F001031BB1036923F068
:1042E0000103036110BD0000000001400004004014
:1042F00000080040000C0040000401400040014064
:10430000004401400048014000180040001C0040EB
:104310000020004010B50348FEF76AFD014800F098
:10432000FBF810BD7011002070B50546AC6B002085
:10433000E085E0842046FEF75AFD70BD70B5064664
:104340000025B46B20684069C0F3C01594F84100A3
:10435000212805D125B10020E084204600F0C8F8CE
:1043600020684069C0F3801594F84200222805D1E6
:1043700025B10020E085204600F074F8606C40F024
:10438000100060642046FEF732FD70BD70B5054632
:10439000AC6B2868006800F48070002842D1E0858A
:1043A00000BF00BF21680C3151E8001F21F480706C
:1043B00021680C3141E80002002AF3D100BF00BFA0
:1043C00000BF2168143151E8001F21F0010021686D
:1043D000143141E80002002AF3D100BF00BF00BF42
:1043E0002168143151E8001F21F040002168143188
:1043F00041E80002002AF3D100BF202084F84200E7
:10440000206B01280ED100BF00BF21680C3151E89C
:10441000001F21F0100021680C3141E80002002A41
:10442000F3D100BF00206063206B012804D1A18D6F
:104430002046FEF796FC02E02046FFF7C5F870BD67
:1044400070B50546AC6B01206063206B012805D177
:10445000A08D41082046FEF784FC02E02046FFF7CD
:10446000B4F870BD00BF00BF02680C3252E8002FE4
:1044700022F4907102680C3242E80013002BF3D151
:1044800000BF00BF00BF0268143252E8002F22F0C4
:1044900001010268143242E80013002BF3D100BF7F
:1044A000016B01290ED100BF00BF02680C3252E837
:1044B000002F22F0100102680C3242E80013002B9A
:1044C000F3D100BF202180F8421000210163704722
:1044D00010B504462068C06820F040002168C8601C
:1044E000202084F841002046FFF770F8002010BD1E
:1044F00000BF00BF02680C3252E8002F22F0C0015A
:1045000002680C3242E80013002BF3D100BF2021D7
:1045100080F841107047000038B504468A4884424C
:1045200022D100680068C0F3001000281BD000BF33
:10453000002000908448006800680090824800686D
:104540004068009000BF00BF7F48FEF70BFCC82208
:104550007E497D48FFF722F87C48FFF7A1FC8021C7
:104560007A48FBF7EFFFEDE0794884427DD100689F
:10457000006800F0200060B100BF00200090744887
:10458000006800680090724800684068009000BFB2
:10459000D8E06F480068006800F010000028E2D002
:1045A00000BF002000906A480068006800906848DA
:1045B00000684068009000BF00BF6548C06B00689D
:1045C000006800F4002098BB6148C06B0068006878
:1045D00020F001005E49C96B096808605C48C06B47
:1045E00000684068C0F124005A49088024205849D6
:1045F000C96B096848605648C06B0068006840F4A1
:1046000000205349C96B096808605148C06B0068B5
:10461000006840F001004E49C96B096808604D48C8
:10462000008812283BD14C494C4801F041F836E053
:10463000FFE74748C06B0068006820F0010044496C
:10464000C96B096808604248C06B00684068C0F1E7
:1046500024004049088024203D49C96B096848600E
:104660003B48C06B0068006800E021E020F40020B7
:104670003749C96B096808603548C06B0068006835
:1046800040F001003249C96B096808603148008870
:10469000122804D130493148243001F009F800F0E3
:1046A000C7FC47F23051084400212D4A03C249E0BB
:1046B0002C48844222D100680068C0F30010002812
:1046C00040D000BF0020009026480068006800909D
:1046D000244800684068009000BF00BF2148FEF7F2
:1046E00041FB802220491F48FEF758FF1E48FFF774
:1046F000D7FB80211C48FBF725FF23E01B488442A1
:1047000020D100680068C0F30010D8B100BF0020BD
:1047100000901648006800680090144800684068DF
:10472000009000BF00BF1148FEF71CFB80220E491D
:104730000E48FEF733FF0C48FFF7B2FB80210A4812
:10474000FBF700FF38BD0000B8110020CE15002097
:104750000012002042000020B8150020961600200C
:104760005000002048120020DE16002070110020AA
:10477000F8B5044694F84200222875D1A068B0F537
:10478000805F0CD1206950B90025A66A2068406876
:10479000C0F308003080A06A801CA06215E0A56A02
:1047A0000026A068B0F5805F03D0A06828B9206912
:1047B00018B920684068287004E02068406800F05C
:1047C0007F002870A06A401CA062E08D401E80B26D
:1047D000E085002846D12068C06820F020002168CC
:1047E000C8602068C06820F480702168C8602068B4
:1047F000406920F0010021684861202084F84200CF
:1048000000206063206B012826D10020206300BFB8
:1048100000BF21680C3151E8001F21F01000216811
:104820000C3141E80002002AF3D100BF2068006883
:1048300000F0100010280AD100BF0020009020686E
:104840000068009020684068009000BF00BFA18D04
:104850002046FEF786FA02E02046FEF7B5FE00206D
:10486000F8BD01E00020FBE70220F9E72DE9F84F51
:1048700004462068006920F44050E168084321683C
:1048800008612169A068084361690843E169084338
:1048900000902068C06849F20C6188430099084381
:1048A0002168C8602068406920F44070A16908430D
:1048B0002168486176492068884203D0754920689C
:1048C000884203D1FDF746FE814602E0FDF732FE45
:1048D0008146E069B0F5004F6CD102206168A0FB11
:1048E000015003461920A9FB007001462A463846AC
:1048F000FBF73AFD6421B0FBF1F04FEA001A022009
:104900006168A0FB01510B461920A9FB00712A46E2
:104910003846FBF729FD834602206168A0FB015061
:1049200003461920A9FB00712A463846FBF71CFDF7
:104930006421B0FBF1F000EBC00101EB0010ABEB28
:104940008000322101EBC0006421B0FBF1F000F0E7
:10495000F8000AEB400A02206168A0FB0150034600
:104960001920A9FB007001462A463846FBF7FCFCDB
:10497000834602206168A0FB015003461920A9FB71
:1049800000712A463846FBF7EFFC6421B0FBF1F0DA
:1049900000EBC00101EB0010ABEB8000322101EB1A
:1049A000C0006421B0FBF1F000F007005044216822
:1049B00088606AE004206168A0FB0150034619206A
:1049C000A9FB007001462A463846FBF7CDFC82461B
:1049D00004206168A0FB015003461920A9FB007068
:1049E00001462A463846FBF7BFFC6421B0FBF1F0D4
:1049F00000EBC00101EB0010AAEB8000322101EBBB
:104A000000106421B0FBF1F000F0F00A04206168AE
:104A1000A0FB017003461920A9FB00513A46284625
:104A2000FBF7A2FC6421B0FBF1F00AEB001A0420B2
:104A30006168A0FB01510B461920A9FB00712A46B1
:104A40003846FBF791FC834604206168A0FB0150C7
:104A500003461920A9FB007001462A463846FBF799
:104A600083FC6421B0FBF1F000EBC00101EB00100E
:104A7000ABEB8000322101EB00106421B0FBF1F0C0
:104A800000F00F00504421688860BDE8F88F0000F6
:104A9000001001400014014077B581B0044615466E
:104AA0000298A062A58500206064222084F842005C
:104AB0002848E16BC8632848E16B08642748E16B2C
:104AC000C8640020E16B086502AE32682368191DD6
:104AD0002B46E06BFDF7CCF900BF0020009020686A
:104AE0000068009020684068009000BF00BF206907
:104AF00070B100BF00BF21680C3151E8001F41F4C4
:104B0000807021680C3141E80002002AF3D100BF17
:104B100000BF00BF2168143151E8001F41F00100BF
:104B20002168143141E80002002AF3D100BF00BF20
:104B300000BF2168143151E8001F41F04000216896
:104B4000143141E80002002AF3D100BF002004B074
:104B500070BD00008D430008414400083D4300083B
:104B6000014691F84100212828D18868B0F5805F7E
:104B70000BD1086948B90A6A1088C0F308000B68AD
:104B80005860086A801C086205E00B6A581C0862BD
:104B900018780B685860C88C401E80B2C88458B919
:104BA0000868C06820F080000B68D8600868C0689A
:104BB00040F040000B68D860002070470220FCE7FE
:104BC00010B50348FEF714F90148FFF7A5FC10BD26
:104BD000B811002010B50348FEF70AF90148FFF7A5
:104BE0009BFC10BD0012002010B50348FEF700F931
:104BF0000148FFF791FC10BD4812002010B5024893
:104C0000FEF7F6F810BD00009012002000B5FFF787
:104C100037FA14480068C06840F01000114909686C
:104C2000C86011480068C06840F010000E4909686B
:104C3000C8600E480068C06840F010000B49096861
:104C4000C8600B480068C06840F010000849096857
:104C5000C86008480068C06840F02000054909683D
:104C6000C86000BDB81100200012002048120020CA
:104C7000701100209012002000BFFEE770B50546BD
:104C80000C4600260DB1022C01D8002070BDA11EDB
:104C9000094802882846FCF73DF90646F1B2A01EF5
:104CA000285C814206D1601E285CB0EB162F01D132
:104CB0000120EBE70020E9E7780D002070B50546FC
:104CC0000C4600260DB1022C01D8012070BD611EDA
:104CD000FF222846FCF738F90646601E285CB042E1
:104CE00001D10120F2E70020F0E790ED001AB4EEC8
:104CF000C01AF1EE10FA01DD80ED000A90ED001A05
:104D0000B4EEE01AF1EE10FA01D2C0ED000A7047DD
:104D100002480068C0F30220704700000CED00E07C
:104D200010B5002804DB0A07130E054A135406E0E9
:104D30000A07140E034A00F00F031B1FD45410BDC2
:104D400000E400E018ED00E0F0EE401AF4EEC11AC5
:104D5000F1EE10FA07DDF4EEE01AF1EE10FA02D2ED
:104D60009FED020A7047B0EE610AFBE70000000009
:104D70004FF4FA6000F0A8FE00F08CF81A48FEF735
:104D8000E3FF1A48FEF7E0FF1948FFF769F81948F2
:104D9000FFF766F8DFED180A9FED180A184A0021A0
:104DA0001848FEF7A1FFDFED140A9FED140A164A1A
:104DB00000211648FEF798FFDFED0F0A9FED0F0A5E
:104DC000134A00211348FEF78FFFDFED0B0A9FED1A
:104DD0000B0A114A00211148FEF786FF00BF05208B
:104DE00000F02AF9FBE70000680800209C09002079
:104DF000D00A0020040C00200000C8420080BB46FE
:104E0000380D002038180020440D002080180020A4
:104E1000500D0020C81800205C0D00201019002043
:104E2000F0B587B006460C4617461D460194002093
:104E3000029003900490059501233A4601A930465B
:104E4000FCF7A9F860B102233A4601A93046FCF705
:104E5000A2F828B104233A4601A93046FCF79BF892
:104E6000002007B0F0BD2DE9F04104460D4616467E
:104E70001F463B46324629462046FFF7D1FFBDE894
:104E8000F081FEF73FFE00BFFBF77CFE012000F043
:104E9000D3F8F9E710B54FF480720121064800F00D
:104EA00056F84FF480720221034800F050F8C820F1
:104EB000FDF728F810BD00004811002010B503468A
:104EC0000C46207800F00F0058602078011199609E
:104ED000A078617840EA0121D960E0780001217969
:104EE00040EA211119616079217901F00F0140EA4E
:104EF000012159611021F2EE090ABAEE090AD868B7
:104F000000F0C4FC83ED080A0C21F3EE0E0ABBEEA0
:104F10000E0A186900F0BAFC83ED090A0C21F2EEC2
:104F2000040ABAEE040A586900F0B0FC83ED0A0ADC
:104F3000A07900EE100AB8EE400A83ED0D0AE07980
:104F400000EE100AB8EE400A83ED0E0A10BD2DE9FE
:104F5000FC4106460C461546601987B2FF208DF8C5
:104F600000008DF801008DF802008DF803008DF827
:104F700004008DF805008DF80600FC208DF8070070
:104F800008236A4639463046FFF76DFFBDE8FC81CD
:104F900038B500BF4FF0E0200069FDF7C7F80546BF
:104FA0004FF0E0204069441C4FF0E0208069201A57
:104FB0000090FBF7A8FF38B1FDF7B8F805464FF0B1
:104FC000E0208069201A00904FF47A7100984843DD
:104FD000B0FBF4F005EB4501C1EBC51100EBC100DE
:104FE00038BDFDF7B5F8FFF78BF8FEF769FCFEF763
:104FF000B9FBFEF76FFBFEF791FBFEF7BBFCFEF77C
:10500000D5FCFEF7EFFCFEF729FDFEF70BFDFBF7E5
:105010006FFFFFF73FFFFEF7F9FB00F019F800BF45
:10502000FEE701460020842901D0CA1C10447047C5
:1050300010B5FFF7ADFF10BD70B5044625460DB1A4
:10504000294600E00121084600F03EFD002070BD29
:1050500010B500F067FD002010BD7FB504460D4679
:10506000606998B1A06988B1B4F90800FFF7D9FF69
:105070000646D4E90510CDE9006102902B4622696D
:10508000D4E9001000F0DAFE039013E0B4F9080050
:10509000FFF7C7FF064603A8CDE90060238A9AB24E
:1050A0002B46D4E9001000F097FE012802D0002022
:1050B00004B070BD0398FBE72DE9F04105460E46AC
:1050C0001C4807681C480068001D00F0F9FB50B937
:1050D0001948006890F82C10012088401749096889
:1050E000814316480160681C38B936B1124801681E
:1050F000091D134800F02EFC1AE07C190E480068C8
:105100004460BC4207D20C480168091D0D48006884
:1051100000F006FC0CE008480168091D0A48006818
:1051200000F0FEFB09480068844201D20748046091
:10513000BDE8F081780E0020640E00207C0E002077
:10514000341A00206C0E0020680E0020940E0020FF
:1051500010B5044600F00AFC23480068401C2249B0
:1051600008602248006840B920480460084600688A
:1051700001280DD100F03EF90AE01D48006838B959
:105180001A480068C06AE16A884201D8174804607A
:1051900018480068401C1749086094F82C1001203A
:1051A000884015490968084313490860E16A01EB22
:1051B0008101124A02EB8100211D00F0CBFB00F0BF
:1051C000FFFB0B48006868B108480068C06AE16AE4
:1051D000884207D24FF0805009490860BFF34F8FD3
:1051E000BFF36F8F10BD0000740E0020640E00200E
:1051F000800E0020900E00207C0E00205819002008
:1052000004ED00E010B516E000F0B0FB0C48C068FB
:10521000C468201D00F054FB0A480068401E09497C
:10522000086009480068401E0749086000F0C8FB94
:10523000204600F00BF8044800680028E4D110BDB7
:10524000201A0020740E0020700E002010B50446B5
:1052500094F8510030B9206B00F0D0FB204600F0EC
:10526000CDFB1AE094F85100012803D1204600F04C
:10527000C5FB12E094F85100022801D1012000E0A2
:10528000002050B900BF502080F31188BFF34F8F2A
:10529000BFF36F8F00BF00BFFEE710BD30B54FF406
:1052A0007053174800F007042CB1C01D20F0070010
:1052B000134C041B1B1B0246124C22600024114D90
:1052C0006C60D018083820F007000F4C20600024D4
:1052D0000D4D2D686C600C4D2D682C601146441AE4
:1052E0004C60094C24680C60084D4C682C60084DDB
:1052F0004C682C604FF00044064D2C6030BD00001F
:10530000481A0020A00E0020A80E0020B00E002099
:10531000AC0E0020BC0E002000BFFFF773FF064854
:1053200000680128F9D94FF0805004490860BFF3A4
:105330004F8FBFF36F8FF0E75819002004ED00E0A6
:105340002DE9FF5F81460E469246DDE90E7B109CFB
:10535000AAF10100216B01EB800828F0070808F092
:10536000070008B9012000E0002050B900BF50201C
:1053700080F31188BFF34F8FBFF36F8F00BF00BF63
:10538000FEE786B1002507E0715D04F13400415568
:10539000705D00B902E06D1C102DF5D300BF002137
:1053A0004320015502E0002084F83400072F00D389
:1053B0000627E76267640020A064201D00F0ADFAB4
:1053C00004F1180000F0A9FA2461C7F10700A061F8
:1053D00064620020E06484F8500049464046039A25
:1053E00000F050F92060BBF1000F01D0CBF8004075
:1053F000BDE8FF9F10B5002407E004EB84010F4ACD
:1054000002EB810000F07CFA641C072CF5D30C48F9
:1054100000F076FA0B4800F073FA0B4800F070FACF
:105420000A4800F06DFA0A4800F06AFA044809498F
:10543000086004480849086010BD000058190020A1
:10544000E4190020F81900200C1A0020201A00206E
:10545000341A0020680E00206C0E002010B50146A2
:10546000164800E0006803688B42FBD3024643689D
:1054700013448B4204D143684C6823444360014683
:105480000A464B6813440468A34211D10C4C0368CC
:105490002468A34208D04B680468646823444B60C6
:1054A00003681B680B6005E0054B1B680B6001E09F
:1054B00003680B60884200D0016010BDA00E002080
:1054C000A80E00200A490968096809B9012100E00D
:1054D000002121B14FF0FF31064A116006E0044976
:1054E0000968C968C868034A4168116070470000CC
:1054F000680E0020940E00200E480068401C08B979
:10550000012000E0002050B900BF502080F3118836
:10551000BFF34F8FBFF36F8F00BF00BFFEE700BF29
:10552000502080F31188BFF34F8FBFF36F8F00BF00
:1055300000BFFEE7C00E00202DE9F04104464FF009
:10554000000800F047FB4948006808B9FFF7A6FECD
:10555000474800682040002870D1D4B1083404F0D6
:105560000700B0B104F00700C0F10800044404F0E3
:10557000070008B9012000E0002050B900BF50200A
:1055800080F31188BFF34F8FBFF36F8F00BF00BF51
:10559000FEE7002C52D03748006884424ED8364E81
:1055A0003046056801E02E462D686868A04202D2A8
:1055B00028680028F7D12D48006885423ED0306821
:1055C00000F10808286830606868001B102819D9A5
:1055D0002F1907F0070008B9012000E0002050B99A
:1055E00000BF502080F31188BFF34F8FBFF36F8F40
:1055F00000BF00BFFEE76868001B78606C6038463B
:10560000FFF72CFF1B4968680968081A19490860E8
:105610000846006819490968884203D2154800689D
:1056200016490860124968680968084368600020E4
:10563000286013480068401C1149086000F000FD14
:1056400008F0070008B9012000E0002050B900BFB1
:10565000502080F31188BFF34F8FBFF36F8F00BFCF
:1056600000BFFEE74046BDE8F0810000A80E002024
:10567000BC0E0020AC0E0020A00E0020B00E0020BA
:10568000B40E0020001F4FF080730360001F21F054
:1056900001030360001F054B036014380260001F04
:1056A0006FF002030360203870470000F9540008CF
:1056B00000B101B970470278437842EA0322C2F38D
:1056C0000A020A804278D210837842EA4312C2F377
:1056D0000A024A8082789211C37842EA83020379EF
:1056E00042EA8322C2F30A028A8002795210437985
:1056F00042EAC312C2F30A02CA804279C2F301121B
:105700000A724279121192084A728279C37942EA86
:10571000032212B28A81027A437A42EA032213B246
:10572000CB81827AC37A42EA032213B20B82037BD3
:105730008B74437BCB74827BC37B42EA03228A82D5
:10574000027C437C42EA032212B24A810A88A2F513
:10575000806212B20A804A88A2F5806212B24A8040
:105760008A88A2F5806212B28A80CA88A2F5806215
:1057700012B2CA804A89A2F5806212B24A81B1F996
:105780000020082A06DCB1F9002012F1080F01DB25
:1057900000220A80B1F90220082A06DCB1F90220B1
:1057A00012F1080F01DB00224A80B1F90420082A17
:1057B00006DCB1F9042012F1080F01DB00228A8017
:1057C000B1F90620082A06DCB1F9062012F1080F0B
:1057D00001DB0022CA80B1F90C20082A06DCB1F9ED
:1057E0000C2012F1080F01DB00228A81B1F90E2092
:1057F000082A06DCB1F90E2012F1080F01DB0023A4
:10580000CB8100BF56E700BFFEF700FD0320FFF786
:1058100013FCF9E7DFED150A9FED150A154A002183
:105820001548FEF761FADFED110A9FED110A134AE0
:10583000002111484830FEF757FADFED0C0A9FEDC2
:10584000100A104A00210C489030FEF74DFADFEDA7
:10585000070A9FED0B0A0C4A00210748D830FEF7D3
:1058600043FA00BF0520FFF7E7FBFBE70000C84253
:1058700000803B462C080020D40600203808002079
:1058800000803B454408002050080020B0EE401A3C
:1058900030EEC10AF0EE401AB0EE412A00EE100AD6
:1058A000B8EEC00A60EE212A01228A40521E00EEA4
:1058B000102AB8EEC03A82EE830A30EE020A704730
:1058C00001460A69D1E901309860D1E901035860C5
:1058D0005068884201D188685060002008611068D3
:1058E000401E106010687047034B0360034B0B6051
:1058F0008023136070470000CC0E0020200F002092
:1059000000F1080141604FF0FF31816000F10801B2
:10591000C160016100210160704700210161704791
:1059200010B502460B685C1C0CB9106907E002F167
:10593000080000E04068446824689C42FAD9446842
:105940004C604C68A160886041600A611468641C06
:10595000146010BD42684A6093688B609368596018
:105960009160086103685B1C0360704700BF5020B2
:1059700080F31188BFF34F8FBFF36F8F00BF0E48C6
:105980000068401C0C49086008460068012812D1D4
:105990000A480068C0B208B9012000E0002050B9F0
:1059A00000BF502080F31188BFF34F8FBFF36F8F7C
:1059B00000BF00BFFEE77047C00E002004ED00E00E
:1059C0000D48006850B900BF502080F31188BFF324
:1059D0004F8FBFF36F8F00BF00BFFEE70648006820
:1059E000401E054908600846006820B9002080F381
:1059F000118800BF00BF7047C00E002070B506467A
:105A00003546002E44D0083D2C462249606809687E
:105A1000084008B1012000E0002050B900BF50202C
:105A200080F31188BFF34F8FBFF36F8F00BF00BFAC
:105A3000FEE7206808B9012000E0002050B900BF4F
:105A4000502080F31188BFF34F8FBFF36F8F00BFDB
:105A500000BFFEE70F49606809680840C0B12068D0
:105A6000B0B90C49606809688843606000F0B2F81A
:105A70000949606809680844074908602046FFF73B
:105A8000EDFC06480068401C0449086000F0D8FAA4
:105A900070BD0000BC0E0020AC0E0020B80E00202F
:105AA00000204FF0E02108618861064800684FF44B
:105AB0007A71B0FBF1F0401E4FF0E0214861072001
:105AC00008617047600E002070B504460025D4B10F
:105AD0001248006808B9012000E0002050B900BF5A
